:020000040800F2
:1000000040110020DD010008E1010008E3010008C3
:10001000E5010008E7010008E90100080000000010
:10002000000000000000000000000000EB010008DC
:10003000ED01000800000000EF010008F1010008D8
:10004000F3010008F3010008F3010008F3010008C0
:10005000F3010008F3010008F3010008F3010008B0
:10006000F3010008F3010008F3010008F3010008A0
:10007000F3010008F3010008F3010008F301000890
:10008000F3010008F3010008F3010008F301000880
:10009000F3010008F3010008F30100088F2A0008AB
:1000A000F3010008F3010008F3010008F301000860
:1000B00081140008BB10000869140008F30100084F
:1000C000F3010008F3010008F3010008F301000840
:1000D000F3010008F3010008F30100089D1A00086D
:1000E000F3010008F3010008F301000800F002F832
:1000F00000F05FF80AA090E8000C82448344AAF163
:100100000107DA4501D100F054F8AFF2090EBAE860
:100110000F0013F0010F18BFFB1A43F0010318473B
:1001200040AC000060AC00000A444FF0000C10F836
:10013000013B13F0070408BF10F8014B1D1108BF65
:1001400010F8015B641E05D010F8016B641E01F805
:10015000016BF9D113F0080F1EBF10F8014BAD1C55
:100160000C1B09D16D1E58BF01F801CBFAD505E073
:1001700014F8016B01F8016B6D1EF9D59142D6D3CD
:10018000704700000023002400250026103A28BFF5
:1001900078C1FBD8520728BF30C148BF0B607047F9
:1001A000642906F0F184002070471FB51FBD10B50B
:1001B00010BD06F0B9FE1146FFF7F7FF00F02AF870
:1001C00006F0D7FE03B4FFF7F2FF03BC00F034FAE9
:1001D00030BF72B662B680F308887047084800479F
:1001E000FEE7FEE7FEE7FEE7FEE7FEE7FEE7FEE7E7
:1001F000FEE7FEE703480449044A054B7047000048
:10020000ED000008400B002040110020400D0020B0
:10021000400D0020092000F0B6F9482000F056F803
:10022000022000F09BF9012000F098F900F094FA08
:1002300000F0CCFA00F001FD4FF4FA31482000F054
:1002400024FA4FF41651242001F0B6FB002141F6A8
:100250001F4000F0B1FF01F015F801F070F800F058
:10026000B9FD01F023F905F0AEFE05F0C0FE47210F
:100270004FF6FF7000F0A2FE01F000FE1DE00F48F7
:100280000078012804D101F087FF00200B49087095
:100290000B48007820B906F006FA06F0EDF801E008
:1002A00006F09DFA012007490870002006490870F1
:1002B00000BF044800780028FBD1E0E738000020A8
:1002C0000700002035000020340000204FF0E0211E
:1002D000096921F004014FF0E0221161C21700EB1F
:1002E0005272C2F3C702234B1A701946097801EB08
:1002F0004102C2EBC1114FF6FF7202EAC1011E4A70
:100300001180704701461B4A12784A434FF0E023A0
:100310005A6100229A6101221A6100BF4FF0E02267
:10032000106900F001021AB100F48032002AF5D001
:1003300000224FF0E0231A619A61704701460E4A8D
:1003400012884A434FF0E0235A6100229A61012249
:100350001A6100BF4FF0E022106900F001021AB1EB
:1003600000F48032002AF5D000224FF0E0231A6119
:100370009A6170475000002052000020A34A0A40B2
:100380000243A34B1A6070470146072323EA010288
:1003900012029F4B1B1D18684FF6FF0318409D4B20
:1003A000184310439A4B1B1D186070472DE9F0410C
:1003B0000746884614461D462846FFF7E5FFC5F167
:1003C000040007FA00F60F20284100EA080006435F
:1003D00006F00F06E21704EBD2625211920002F10E
:1003E000E022D2F800212146E31704EBD3635B112E
:1003F000A4EB431C012303FA0CF31A432046E31732
:1004000004EBD3635B119B0003F1E023C3F80021ED
:100410008148005D40EA06107F490855BDE8F0813B
:1004200070B504460B46CE1701EB9676C6F38700EF
:10043000CE1701EB9676B610A1EB8606B606350E02
:10044000764B9B6943F00103744EB3614FEAB633B8
:1004500053F820300F26AE40B343714E46F820309B
:10046000334653F8203004FA05F61E436C4B43F82C
:1004700020606C4B1B6801268E403343694E33600D
:1004800002F0010343B1674B0C331B6801268E4019
:100490003343644E0C36336002F0020343B1614BC8
:1004A00008331E6801238B401E435E4B08331E60D9
:1004B00070BD00B5002059490861C860142048612A
:1004C00000208861C8610846006840F001000860AB
:1004D000084640685449084050494860084600684A
:1004E000524908404D4908600846006820F48020C1
:1004F00008600846406820F4FE00486000208860DC
:1005000000214FF00060FFF739FF00BD10B54048F3
:100510000830006840F004003D49083108603F4859
:10052000C06940F080503D49C8614148406840F48E
:1005300080703F4948600846006840F00400086049
:100540000846006840F002000860FFF741FE10BD59
:100550003048001D2E49091D0860704701464906B4
:100560002E4A926942F001022C4B9A612C4A083AB9
:10057000526822F0E0622A4B083B5A601A465268E1
:100580000A435A60704730B504460025FFF791FFD3
:100590002248006840F480302049086000BF1F48AE
:1005A0000068400C0028FAD04FF480601B49486076
:1005B000A01EC4B20846406840EA8440486008462D
:1005C000406840F4803048601A48006840F03200CB
:1005D000184908601148006840F080700F490860B1
:1005E00000BF0E480068400E0028FAD00B48406853
:1005F00040F002000949486005E008484068C0F33F
:10060000870505F00305022DF7D130BD80FFFF1FE0
:1006100008ED00E00000FA0500E400E000100240F0
:1006200008000140000401400000FFF8FFFFF6FE53
:100630000070004000200240014600BF7047404A61
:1006400012785AB900BF3F4A128802F04002002ACD
:10065000F9D0C2B23B4B1B1D1A800AE000BF3A4AD8
:10066000128802F04002002AF9D0C2B2364B1B1D9C
:100670001A8070473449091D088000BF3249098833
:1006800001F040010029F9D070472DE9F05F0546DF
:100690000E46300108F0ECFC81462C4905FB01F0C8
:1006A00008F0E6FC8246494608F098FB07463846C3
:1006B00008F0A6FC84B2204608F0DAFC83463946EE
:1006C00008F01BFE82464FF0834108F019FD814679
:1006D00008F096FC80464FF6FF7000EA041404EB25
:1006E000080084B21A48806940F004001849886103
:1006F0000846806940F4804088611648006820F40C
:100700007F60144908600846006840F40B60086088
:100710000F48C06840F480400D49C8600846C06872
:1007200020F48040C860084808300480001D00881C
:1007300042F20C01084304490C310880BDE8F09FE7
:1007400007000020004800400038014040420F00F0
:1007500000100240040801401748806940F004007E
:10076000154988611548006820F470201349086015
:100770000846006840F440300860104808300068BF
:1007800040F480500D4908310860704718B90021C5
:100790000B4A11600FE00B490968491C094A1160B6
:1007A000814208D106490968C943074AC2F8B01115
:1007B0000021044A11607047001002400408014003
:1007C000B0012142580000200000214256488069B3
:1007D00040F00400544988615448006820F070409B
:1007E000524908600846006840F0004008604F48E1
:1007F0000830006840F400404C49083108607047F8
:1008000001464B48006828B94A480088401C494ABC
:10081000108002E00020474A10804548006828B94F
:100820004548007810B90120434A107043480078C9
:10083000B0B941480078012807D141480078401CF0
:100840003F4A107001203D4A10703D480078022850
:1008500006D100203A4A10703A4A108002207047B0
:1008600033480068012804D10020334A1070334A0D
:1008700010703348007801281CD132480088401C91
:10088000304A10801046008888420ADD29480088D6
:10089000884206DA00202A4A10702A4A1080012075
:1008A000DDE724480088884204DD0020244A1070D7
:1008B000244A10800020D2E72348007838B11C4831
:1008C000006820B9002020490870012070471848AE
:1008D0000068012801D11C4908700020F6E71B4878
:1008E000008840B91248006828B919480088401C9F
:1008F0001749088002E00020154908801448008844
:10090000C82807DD0120114908800020104908800F
:10091000012070470D480088012802D100200B49B2
:1009200008800020F5E700000010024004080140A4
:100930003C012142620000205C0000205D0000209C
:100940005E0000206000002064000020680000209D
:100950006600002010B50A461AB10123FE4C236040
:1009600002E00023FC4C2360002114E00023FB4C38
:10097000236000F080031BB10123241F236003E0E8
:100980000023F64C241F23600123F44C236043060C
:10099000180E4B1CD9B20829E8DB0123EE4C23606A
:1009A00010BD30B500241CE004F1B001C8B2002134
:1009B000FFF7D0FF00210846FFF7CCFF00211020F1
:1009C000FFF7C8FF002508E0E54901EBC501085D18
:1009D0000121FFF7BFFF681CC5B2802DF4DB601C4E
:1009E000C4B2082CE0DB30BD00B500218D20FFF73C
:1009F000B1FF00211420FFF7ADFF0021AF20FFF76A
:100A0000A9FF00BD00B500218D20FFF7A3FF002145
:100A10001020FFF79FFF0021AE20FFF79BFF00BDD6
:100A200030B500240CE0002506E00020CC4901EBA5
:100A3000C5010855681CC5B2802DF6DB601CC4B228
:100A4000082CF0DBFFF7ADFF30BDF0B514460026F3
:100A50007F2801DC3F2900DDF0BD0B46CF1701EBFD
:100A60005777FF10C7F10707FAB2CF1701EB577797
:100A7000FF10A1EBC707FDB2C5F107070123BB407B
:100A8000DEB24CB1B64B03EBC0039B5C3343B44FB7
:100A900007EBC007BB5408E0B14B03EBC0039B5C02
:100AA000B343AF4F07EBC007BB5400BFD4E72DE9FA
:100AB000F04F80460C4615461E46A346A5F1200081
:100AC000C5B200273EE00C2E07D105EB4500A54935
:100AD00001EB800010F8079004E0A34800EB05103C
:100AE00010F807904FF0000A26E009F0800028B1C6
:100AF00021464046099AFFF7A8FF09E0099808B97E
:100B0000012000E00020024621464046FFF79DFFFD
:100B10004FEA49604FEA1069601CC4B2A4EB0B00B5
:100B2000B04205D15C4608F1010000F0FF0806E084
:100B30000AF1010000F0FF0ABAF1080FD5DB00BF8F
:100B4000781CC7B2B742BEDBBDE8F08F10B50246D5
:100B5000012000E050430B1EA1F10104E1B2F9D1E4
:100B600010BD2DE9FF4F81B0074691461E460E9DF0
:100B70004FF0000A002439E0301B401EC1B20A20A9
:100B8000FFF7E4FFB9FBF0F00A21B0FBF1F201FB43
:100B90001208BAF1000F16D1701EA04213DDB8F191
:100BA000000F0ED10120AB4605EBDB71491001FBB4
:100BB00004710090C8B22B4620220299FFF777FFFC
:100BC00012E04FF0010A0120AB4605EBDB71491042
:100BD00001FB04710090C8B208F13001CAB22B4683
:100BE0000299FFF764FF00BF601CC4B2B442C3DBCC
:100BF00005B0BDE8F08F78B505460E46144618E0FE
:100C00007A2D03DD002506F11000C6B23A2E04DD70
:100C1000002005460646FFF703FF012000902278DA
:100C20000C2331462846FFF742FF05F10800C5B204
:100C3000641C20780028E3D178BD10B54B4880694A
:100C400040F00800494988614948006820F4702054
:100C5000474908600846006840F40030086043488F
:100C6000806940F01000414988610846806940F081
:100C7000010088613F484068C0F313003D49486067
:100C8000084640683C4908433A4948603B48006888
:100C900040F48070394908603448006A20F001004F
:100CA000324908623648008820F001003449088043
:100CB0003248006820F480703049086000202749DD
:100CC000083908606420FFF739FB01202D49C1F87D
:100CD000B4010021AE20FFF73DFE0021D520FFF733
:100CE00039FE00215020FFF735FE0021A820FFF734
:100CF00031FE00213F20FFF72DFE0021D320FFF71A
:100D000029FE00210846FFF725FE00214020FFF7BD
:100D100021FE00218D20FFF71DFE00211420FFF78A
:100D200019FE00212020FFF715FE00210220FFF709
:100D300011FE0021A120FFF70DFE0021C020FFF7CA
:100D400009FE0021DA20FFF705FE00211220FFF73F
:100D500001FE0021812017E090812142BC01224246
:100D6000CC010020EA9400085E99000800100240BF
:100D7000000C0140001001400000202200700040E3
:100D8000306C004000002242FFF7E4FD0021EF201C
:100D9000FFF7E0FD0021D920FFF7DCFD0021F12065
:100DA000FFF7D8FD0021DB20FFF7D4FD0021302024
:100DB000FFF7D0FD0021A420FFF7CCFD0021A620E5
:100DC000FFF7C8FD0021AF20FFF7C4FDFFF728FEA5
:100DD00010BD00007048806940F004006E498861D1
:100DE0006E48006820F470206C4908606A48806989
:100DF00040F40070684988610846C06840F400709B
:100E0000C8600846C06820F40070C86008464068A2
:100E100020F4404048600846406840F40040486084
:100E20005F4800685F4908405D49086008460068FF
:100E300008600846006820F480700860081D00689B
:100E400020F00200091D08600846006820F46020B8
:100E500008600846006840F46020086008460068A2
:100E600040F4801008600846006820F400600860C4
:100E70004B482830006820F4700049492831086048
:100E8000084600680020086045480C30006820F4DF
:100E9000702043490C3108600846006840F4E04087
:100EA00008603F48001D006840F001003C49091DF2
:100EB00008600846006840F00800086000BF384835
:100EC000001D006800F008000028F8D13448001D1B
:100ED000006840F004003249091D086000BF304836
:100EE000001D006800F004000028F8D1704701469A
:100EF0002B483030006820F01F00294A3032106043
:100F000010460068084310602548001D006840F442
:100F10008000234A121D106000BF2148001F006896
:100F200000F002000028F8D01D484830006880B268
:100F300070472DE9F04F87B00420FFF7D8FF8346B4
:100F400007F052FB4FF06632174BCDE9000107F076
:100F50009BFB0022154BCDE9020107F095FB804673
:100F60000022134B07F090FB06460022114B07F0BE
:100F70009DF90022104BCDE9040107F097F90446D2
:100F800007F0ECFA824640F2EC40824500DD8246F2
:100F9000504607B0BDE8F08F001002400008014045
:100FA00004240140FFFFF00066660A40000027406D
:100FB000000059400000F83F0000B04070B5044602
:100FC0000D466C48C06940F002006A49C861084695
:100FD000806940F0080088616748006820F0FF00E1
:100FE000654908600846006840F0280008606348CA
:100FF0000480001F058061481038008840F001001F
:101000005E49103908800846008808800846008834
:101010000880081D0088091D08800846008840F4E3
:101020008070088055482038008840F008005349F7
:10103000203908800846008840F0010008804F48A9
:101040002C38008840F001004C492C3908800123DD
:101050001D2203211846FFF7A9F970BD10B5012024
:10106000474908600F20FFF74DF900204549C1F8B6
:1010700084014548007800F08000E8B142480078DB
:1010800000F03F00414908600846008800040860FD
:10109000084600683E49098808443C4908600846FB
:1010A0000068AA2148434FF47A71B0FBF1F0374948
:1010B000086000203449088010BD30491C39088878
:1010C0003149097801F0800100294ED100F0010179
:1010D000D1B12D49097801F04001A9B12A49097817
:1010E00001F03F013F290AD12749098841F08001D9
:1010F000254A11804FF6FF71254A118004E02249EC
:101100000988491C204A118000F0080169B31E4972
:10111000097801F0400199B11B49098841F080012B
:10112000194A1180154910310988194A118013494B
:101130000C39098821F40071104A0C3A118014E02E
:101140000021114A1180124A11800F49098841F08B
:1011500040010D4A11800021084A083A1180111FF0
:10116000098841F40071121F11800021034A1C3AC2
:101170001180704700100240000C01402C04004018
:1011800084812142008021426A000020300000203A
:101190006C0000203648806940F0080034498861BE
:1011A0003448006880B23349086008460068324914
:1011B000084330490860704700B502460B46FFF708
:1011C000E9FF2B48806940F400602949886108469E
:1011D000806940F004008861284800684FF20F01E0
:1011E000884326490860084600684BF20B01084313
:1011F0002249086022480280001F038020481038DE
:10120000008840F4C0401E4910390880081F00883B
:1012100040F06000091F0880081D008840F400604D
:10122000091D0880081F008840F00800091F088079
:1012300013480C38008840F4805011490C3908805C
:101240000846008840F0010008800D4818300088EA
:1012500040F400400A49183108804FF40040084922
:101260002C3908800846008840F00100088000BD45
:1012700000100240040C014000002222040801403A
:101280002C2C014010B58448C06940F0010082490F
:10129000C8610846806940F0040088617F480068A2
:1012A00020F0FF007D4908600846006840F04400D7
:1012B0000860C804808940F00100C904888108469C
:1012C000808940F04000888101231C2203211846B8
:1012D000FFF76CF800204FF0804108854FF6FF7053
:1012E00088850846008820F44070088008460088F9
:1012F00020F0600008800846008B40F00100088361
:101300000846008B40F4807008830846008C20F06B
:10131000020008840846008C20F02000088408465B
:10132000008B40F0300008830846008940F003003D
:1013300008810846008840F00100088010BD10B503
:101340005548C06940F004005349C86108468069A7
:1013500040F0080088615248006820F07F40504902
:1013600008600846006840F0884008604D480088E2
:1013700040F001004B4908800846008840F04000DA
:10138000088001231E2203211846FFF70FF80020D2
:1013900044491C3108804FF6FF70091D0880414800
:1013A0000C38008820F440703E490C39088008460B
:1013B000008820F0600008803A480C30008840F037
:1013C000010038490C3108800846008840F48070DC
:1013D000088034481430008820F00200314914316C
:1013E00008800846008820F0200008802D480C3036
:1013F000008840F030002B490C3108802948001F3C
:10140000008840F003002749091F088025480C3850
:10141000008840F0010023490C39088010BD0146C6
:10142000022904D003290BD0042919D10FE04FF071
:101430008042928C10B200224FF080439A8411E0D7
:10144000194A128810B20022174B1A800AE0154A76
:101450001832128810B20022124B18331A8001E0A1
:10146000002000BF00BF70470E48001D00880D48D7
:10147000001D008820F001000A49091D08807047FE
:101480004FF08040008A4FF08040008A20F0010039
:101490004FF0804108827047001002400008014070
:1014A000000C01400C08004024040040F74880690B
:1014B00040F00800F5498861F548006820F0FF0019
:1014C000F34908600846006840F033000860704740
:1014D00010B5EF48006820F0F000ED4908600846BC
:1014E000006840F0300008600120EA490860EA48DE
:1014F000D0F8240108B9002010BD0120E549091FDA
:101500000860FEF7FFFE0020E349C1F8A401E148AE
:101510008038006808B10020EEE70120FEF7F2FEF7
:101520000020DC49091F08600120E5E710B5D84814
:10153000006820F0F000D64908600846006840F0D6
:10154000300008600020D349091F0860D249C1F863
:10155000A4010120FEF7D6FE0120CE49091F086034
:10156000CD49C1F8A401FEF7CDFE10BD10B5002491
:10157000C748006820F0F000C549086008460068C8
:1015800040F0800008600120C2490860FEF7BAFE02
:101590000120C149C1F8A001FEF7B4FE0AE0601CB9
:1015A000C4B2322C03DDFFF7C1FF002010BD0120C3
:1015B000FEF7A8FEB748803800680028EFD1B5498B
:1015C000091F08600120F1E710B50020B149091F8B
:1015D0000860AF48006820F0F000AD490860084698
:1015E000006840F0300008600020AB49C1F8A40159
:1015F0000120FEF787FE0120A649091F0860FEF7BB
:1016000081FE0020A449C1F8A00110BD10B5002042
:10161000A049091F08609E48006820F0F0009C491E
:1016200008600846006840F03000086001209A49D0
:10163000C1F8A401FEF766FE01209649091F086063
:10164000FEF760FE00209449C1F8A00110BD70B5FE
:1016500004468F48006820F0F0008D490860084675
:10166000006840F03000086000208A49091F0860C7
:10167000002516E0E009874908606006040E012095
:10168000FEF740FE01208449C1F8A001FEF73AFEB2
:1016900000208049091F08600120FEF733FE681C06
:1016A000C5B2082DE6DB70BD2DE9F04105460E46BA
:1016B00017469846FFF70CFF10B90120BDE8F081EE
:1016C0006906080EFFF7C3FFFFF750FF18B9FFF7D1
:1016D0002DFF0120F2E73046FFF7B9FFFFF746FF85
:1016E00000240BE018F80400FFF7B1FFFFF73EFFFE
:1016F00018B9FFF71BFF0020E0E7641CBC42F1DBD8
:10170000FFF714FF0020D9E770B5054600246048B4
:10171000006820F0F0005E4908600846006840F06C
:1017200080000860002617E000205A49091F086061
:101730000220FEF7E7FD01205749C1F8A00160062D
:10174000040E54488038006808B1601CC4B20220FE
:10175000FEF7D8FD701CC6B2082EE5DB15B1FFF709
:1017600033FF01E0FFF752FF204670BD2DE9F04145
:1017700006460F4614461D46FFF7AAFE10B9012083
:10178000BDE8F0817106080EFFF761FFFFF7EEFE7E
:1017900018B9FFF7CBFE0120F2E73846FFF757FFF5
:1017A000FFF7E4FEFFF794FE012101EB4601C8B20A
:1017B000FFF74DFFFFF7DAFE0DE0012C04D100200A
:1017C000FFF7A2FF287003E00120FFF79DFF2870BC
:1017D0006D1C601EC4B2002CEFD1FFF7A7FE0020E5
:1017E000CEE770B505460E460024FFF771FE284689
:1017F000FFF72DFF641CFFF7B9FE3046FFF727FF08
:10180000641CFFF7B3FEFFF763FE691CC8B2FFF765
:101810001EFF641CFFF7AAFE0020FFF775FF0446B9
:10182000FFF784FE204670BD2DE9F041074688464B
:1018300015461E460024FFF74BFE3846FFF707FF0C
:10184000FFF794FE4046FFF702FFFFF78FFEFFF71A
:101850003FFE791CC8B2FFF7FAFEFFF787FE00BF14
:101860000DE0681EA04204D00120FFF74DFF305567
:1018700003E00020FFF748FF3055601CC4B2AC42C3
:10188000EFDBFFF753FE2046BDE8F0810010024079
:10189000040C0140A4812142008021422DE9F04145
:1018A00080460D4616461F460024FFF711FE4046AF
:1018B000FFF7CDFEFFF75AFE2846FFF7C8FEFFF7F9
:1018C00055FE00BF06E0385DFFF7C1FEFFF74EFE94
:1018D000601CC4B2B442F6DBFFF728FE0120BDE86D
:1018E000F08170B505460E46144631462846FFF78E
:1018F00078FF2070012070BD37B504460D4602AB5D
:10190000012229462046FFF7C9FF3EBD2DE9F843D5
:101910000746884614461D46089E6A464146384694
:10192000FFF7DFFF28B3601CFF2101FA00F0C4F1CC
:1019300008012944491EFF220A41104300F0FF0913
:10194000C5F1080006FA00F0C6B2C4F1070006416E
:101950009DF8000000EA090000909DF80000304367
:1019600000909DF8002041463846FFF7C5FFBDE8CE
:10197000F8830020FBE7F8B506460F4614461D46DF
:101980006A4639463046FFF7ACFF2DB10120A04032
:101990009DF80010084305E00120A0409DF80010CC
:1019A00021EA0000C0B200909DF800203946304680
:1019B000FFF7A2FFF8BD00002DE9F05F05460E46D7
:1019C000300107F055FB8146FA4905FB01F007F0AD
:1019D0004FFB8246494607F001FA0746384607F0B2
:1019E0000FFB84B2204607F043FB8346394607F0DD
:1019F00084FC82464FF0834107F082FB814607F06A
:101A0000FFFA80464FF6FF7000EA041404EB08006A
:101A100084B2E948806940F00800E74988610846D7
:101A2000C06940F48020C861E448006820F47F4029
:101A3000E24908600846006840F40B400860DF484F
:101A40000830006840F48060DC4908310860DA48FA
:101A5000006940F48020D84908610846006920F4F4
:101A600080200861D6480480001D008842F20C01E5
:101A70000843D349091D08800846008840F4807057
:101A800008800846008840F02000088002232722B2
:101A900001210020FEF78AFCBDE8F09F2DE9FF5FE1
:101AA000C7480838008800F02000002876D0C448D5
:101AB000001F0088C349086008460078C2490870C2
:101AC000C0480068592802D10220C0490870BD48AA
:101AD0000068582802D10120BC490870B948006844
:101AE0000A2865DDB74800685A2809D10020B8499E
:101AF0000870B8490870B8490870B849087057E0CC
:101B0000B048006841280AD10120B149087000207E
:101B1000B0490870B0490870B049087048E0A94859
:101B2000006845280BD10020A94908700120A94967
:101B300008700020A8490870A849087038E0A1483A
:101B40000068422807D09F480068432803D09D487A
:101B5000006844280AD100209D4908709D490870FA
:101B60009D49087001209D49087021E09548006852
:101B7000462807D093480068472803D0914800685A
:101B800048280CD100209249087092490870012021
:101B90009149087000209149087009E007E1002090
:101BA0008B4908708B4908708B4908708B49087005
:101BB000844800680A2865DA012084490870814851
:101BC000006848B90020824908708249087082493B
:101BD00008708249087055E07A480068012809D1E8
:101BE0007B49087000207B4908707B4908707B495D
:101BF000087047E07348006805280BD1002074493D
:101C000008700120734908700020734908707349F7
:101C1000087037E06B480068022807D06948006800
:101C2000032803D06748006804280AD100206849C7
:101C30000870684908706849087001206749087091
:101C400020E060480068062807D05E480068072842
:101C500003D05C48006808280BD100205C4908705C
:101C60005C49087001205C49087000205B490870DD
:101C700008E0002056490870564908705649087017
:101C800056490870504800787B2802D101205449F9
:101C900008704D4800787D2802D102205049087014
:101CA0004F48007801280AD1474800784D494E4AEC
:101CB000127888544C480078401C4B4908704848BA
:101CC0000078022873D14848007807F0D1F94749D5
:101CD00008604448C078502803D101204449087066
:101CE000ACE04048C078572803D101204149087032
:101CF000A4E03C48407823285AD03B4800783E492D
:101D0000087034E0384909783B4A1278881A06F09E
:101D100054FC804642460B460020384905F0C6FC7C
:101D200004460D4634490978491E2E4A515CA1F1FA
:101D3000300006F042FC064622462B4606F0A4FC84
:101D400082468B462E48006806F0AEFF52465B4640
:101D5000CDE9000106F0EEF9CDE9020106F0B8F98F
:101D60002749086024480078401E2349087022480B
:101D700000780428C6DA1B484078303809285CD23D
:101D8000DFE800F0050D464E565758595A001D49D8
:101D90001B48006807F022F81B4908604DE019490C
:101DA0001748006807F01AF81849086045E052E043
:101DB00044E0000040420F0000100240040C0140CB
:101DC000084800407C000020700000200500002032
:101DD0000100002002000020030000200400002079
:101DE00080000020CC050020810000202C00002075
:101DF000370000203800002082000020000024402E
:101E0000840000200000C842400000204400002060
:101E100012491348006806F0E1FF124908600CE01F
:101E20000E490F48006806F0D9FF0F49086004E02A
:101E300003E002E001E000E000BF00BF00200B492A
:101E400008700B4908700B49087005490860322179
:101E5000094804F009FFBDE8FF9F00000000C842E8
:101E600084000020480000204C000020800000205A
:101E70008100002082000020CC05002010B512480F
:101E8000806940F00800104988611048006820F41B
:101E900070000E4908600846006840F400000860C1
:101EA0000A480C30006840F0200008490C310860F6
:101EB000012205211046FEF7B3FA02231722012161
:101EC0001846FEF773FA10BD00100240000C0140E6
:101ED000C848C9494860C94848607047C648006951
:101EE00040F08000C44908617047C348C16801F0F0
:101EF000010008B10120704701F0040008B1022080
:101F0000F9E701F0100008B10320F4E70020F2E740
:101F100070B5044600BFFFF7E8FF0546012D00D06D
:101F200006E00120FEF7EEF9601E84B2002CF2D12B
:101F300000BF04B9FF25284670BD70B505460024D2
:101F400045F6FF70FFF7E4FF0446C4B9AA480069EC
:101F500040F00200A849086108464561006940F068
:101F60004000086145F6FF70FFF7D2FF0446012CE0
:101F700005D0A148006920F002009F490861204671
:101F800070BD70B505460E46FF20FFF7C1FF044641
:101F900094B99948006940F00100974908612E8082
:101FA000FF20FFF7B5FF0446012C05D092480069D9
:101FB00020F0010090490861204670BD0146088864
:101FC00070472DE9F04105460E461746002407E00C
:101FD00036F814102846FFF7D4FFAD1C601C84B2FD
:101FE000BC42F5DBBDE8F08130B503460C46154632
:101FF000002207E01846FFF7E1FF24F812009B1CBF
:10200000501C82B2AA42F5DB30BD2DE9F05F80465C
:102010008A461746B8F1006F02D37948804501D34C
:10202000BDE8F09FFFF754FFA8F1006B4FEA9B2536
:10203000CBF34809C9F50074A74200DC3C464EE0EA
:102040004FF0006101EB85208A146E49FFF7CCFF49
:1020500000260BE009EB06006A4931F810004FF644
:10206000FF71884200D003E0701C86B2A642F1DB0B
:1020700000BFA6421BDA4FF0006101EB8520FFF79D
:102080005CFF002608E03AF8160006EB09015D4AFD
:1020900022F81100701C86B2A642F4DB4FF00061FA
:1020A00001EB85208A145749FFF78BFF04E0224695
:1020B00051464046FFF785FFA74200D110E06D1C56
:1020C0004FF000090AEB440A08EB4408381B87B2BA
:1020D000B7F5007F02DD4FF4007400E03C46AFE747
:1020E00000BFFFF7FBFE00BF9AE713B504460122CD
:1020F00001A92046FFF789FF1CBD10B50A224249FD
:102100004248FFF771FF404800884FF6FF71884250
:1021100019D13D484088884215D13B488088884283
:1021200011D13948C08888420DD1394839490860F1
:102130004FF07E50384908603848394908603948BE
:102140003949086027E03049088806F091FF0446C5
:10215000364906F043FE2F4908602B49488806F0AF
:1021600087FF0446314906F039FE2B4908602649AD
:10217000888806F07DFF04462C4906F02FFE28498A
:1021800008602149C88806F073FF0446274906F015
:1021900025FE2549086010BD10B524491D4800687A
:1021A00006F0AEFF044606F02BFF214908801F49C8
:1021B0001948006806F0A4FF044606F021FF1C49F8
:1021C00048801A491648006806F09AFF044606F04F
:1021D00017FF1749888015491348006806F090FFDB
:1021E000044606F00DFF1249C8800A220748FFF78F
:1021F0000CFF10BD2301674500200240AB89EFCDE5
:1022000000000108FE050020A401002000E00008F5
:102210000000964340000020440000200000A0423F
:1022200048000020CDCCCC3E4C0000200000C8422D
:10223000B80100200146002901DA484200E00846C2
:10224000704700B503460A46002B07DA0020FA491A
:1022500008600120F949C1F8B80106E00120F649FB
:1022600008600020F549C1F8B8011846FFF7E2FF01
:10227000F3490880002A08DA0020EF49083908608D
:102280000120EE49C1F8B00107E00120EA49083910
:1022900008600020E949C1F8B0011046FFF7CAFF05
:1022A000E7490C31088000BD70B506460C4615465E
:1022B000E448007808B9002070BDE348008870B990
:1022C000E249304606F0E8FF09D2E149304606F01F
:1022D000E3FE04D21CB915B90120DB490880DA48B5
:1022E0000088012819D1DB480088401C80B2D949F8
:1022F0000880322803DD00200880D3490880032CA1
:102300000BDD032D09DD3C2C07DA3C2D05DA00201E
:10231000CD49088008800120CEE70020CCE72DE9D8
:10232000F04107460E4614461D46CB480088E0B9EA
:102330002046FFF77FFF02462846FFF77BFF104449
:102340001E2805DAC5480088401CC449088002E000
:102350000020C2490880C14800880A2805DD012004
:10236000BD4908800020BD490880BB48008801287D
:102370001DD1BB480088401C80B2B9490880C828DC
:1023800003DD00200880B4490880B649384606F0CD
:1023900083FF0CD2B449304606F07EFF07D2B34922
:1023A000304606F079FE02D20220AB490880AA48E6
:1023B0000088022816D1AE480088401C80B2AC4983
:1023C0000880642803DD00200880A3490880601984
:1023D000FFF730FF872805DD00209F490880012096
:1023E000BDE8F0810020FBE741F6F420A14909781F
:1023F000012904D1A049096864399F4A11609F49A5
:102400000978012904D19E49096864319C4A116008
:10241000994909684242914202DA4142964A116062
:1024200095490968814201DD93490860944909682A
:102430004242914202DA4142914A11609049096850
:10244000814201DD8E49086070472DE9F84F05464D
:102450000E4691468B480078582191FBF0F738469C
:1024600006F0EEFD0446DFF820A24FF0000B87488F
:102470000078012803D086480078012834D14FF035
:102480007E518448006806F03BFC8249074608609C
:102490004FF07E5106F064FD07D1A819FFF7CAFE80
:1024A000074606F0CDFD7C4908607B4801687B4803
:1024B00006F094FC7A4908600846006806F0F4FBD0
:1024C00007464FF03332774B06F0A2F802D2764837
:1024D0007349086075497248006806F0DDFE0BD24A
:1024E00072486F49086007E071486D490860002034
:1024F000684908606849086064480078012808D184
:10250000674801686B48006806F002FF6949086087
:102510000FE05F480078012808D1614801686548EC
:10252000006806F0EDFB6349086002E000206149A5
:10253000086021465F48006806F0AEFE01D25D48A3
:10254000046084F000475B480168384606F0A4FE4A
:1025500003D284F0004057490860464800780128BB
:1025600003D046480078012802D14FF07C5B01E09F
:102570004FF0000B5946484606F0C2FD00904D480A
:10258000006880F000485146404606F0B9FD074615
:10259000009906F0BDFE484908600846006806F04C
:1025A00013FDBDE8F88F70B506460D464349304629
:1025B00006F072FD0CD34249304606F06DFE07D39B
:1025C00020480078012803D040F2564085420EDAB8
:1025D000012400201849091F08601849C1F8BC01EE
:1025E0001549083908601549C1F8B00100E0002418
:1025F000204670BD2DE9F05F32480078012807D1F0
:1026000020480078012803D12F483049086002E0B3
:102610002F482E4908601748007801285CD11948D6
:10262000007806F025FD044621462848006806F09B
:10263000D5FB2849086066E0BC8121420080214228
:10264000342C014006000020DC000020000020C1E6
:1026500000002041DE000020D4000020D600002031
:10266000D80000200020CB460000A0C10000A041FF
:10267000DA000020010000201000002002000020ED
:102680001400002005000020000028420300002064
:1026900004000020D0000020C800002000004842B4
:1026A000CC0000203333E33F9A99193F00004040AB
:1026B0006666663FC0000020C4000020000020C203
:1026C000000020423600002000003442BC00002000
:1026D0000000DC42B4000020FE48007801280FD141
:1026E000FD48007806F0C4FC0546FC48006880F010
:1026F00000442946204606F071FBF949086002E0D3
:102700000020F7490860F748007801281BD1F648F7
:102710000068B0F5FA7F16D2F4480078012812D08C
:10272000F348007801280ED0EB48007806F0A0FCB2
:102730000546EA48006880F000442946204606F035
:102740004DFBE7490860EB490968EB4A1268114400
:10275000084606F075FCE9490860E948006806F09B
:10276000A3FA0646E74AE84B05F08EFF044605F05B
:10277000AFFCE3490860E148006806F095FA80463E
:10278000E04AE24B05F080FF04460D46DC48006855
:1027900006F08AFA064622462B4605F0CBFC824616
:1027A00005F096FCD649086008460168D8480068DC
:1027B00006F0A6FAD6490860C9480168D4480068FE
:1027C00006F0A6FDD2490860D249D148006806F05B
:1027D00063FD02D2CF48CE490860CF49CC4800689B
:1027E00006F05AFC02D2CC48C9490860CB480168BF
:1027F000C748006806F084FC0446C9480168C04820
:10280000006806F07DFC0546214606F079FAC549C8
:102810000860C5480168C5480068FFF7C4FE012884
:1028200003D0C3480078012802D10020B8490860CD
:10283000BC48006806F0C8FBBDE8F09F2DE9F047F2
:1028400005460C460021284606F062FD8046B94840
:102850000168204606F054FC81464146B6480068AF
:1028600006F04EFC8246494606F04AFA074606F054
:10287000ABFB06463046BDE8F08770B53220FDF769
:10288000BFFF0546012D07D1A948007808B90120EE
:1028900000E00020A6490870022D07D1A748007863
:1028A00008B9012000E00020A4490870FEF717F8DD
:1028B0000446012C07D18B48007808B9012000E0BC
:1028C00000208849087070BD2DE9F04F89B081461D
:1028D00003F085FD9A490860B9F1010F1BD103F09F
:1028E000EDFB98480068914908609749B1F90200EA
:1028F00006F0A6FB954908609349B1F9040006F07B
:102900009FFB934908609349B1F9040006F098FBD6
:1029100091490860B8E04621D020FEF762FF80466A
:102920004521D020FEF75DFF08EB0027384606F072
:1029300087FB04464821D020FEF753FF80464721FD
:10294000D020FEF74EFF08EB0027384606F078FB54
:1029500006463C21D020FEF744FF80463B21D02094
:10296000FEF73FFF08EB0027384606F069FB834679
:102970004021D020FEF735FF80463F21D020FEF7D2
:1029800030FF08EB0027384606F05AFB05464FF0AB
:102990008E41204606F080FC05D24FF08F41204644
:1029A00006F0B6FC04464FF08E41304606F074FC4B
:1029B00005D24FF08F41304606F0AAFC06464FF094
:1029C0008E41584606F068FC05D24FF08F415846BC
:1029D00006F09EFC83464FF08E41284606F05CFCD4
:1029E00005D24FF08F41284606F092FC054684F050
:1029F000004056490860284606F056F9CDE9000126
:102A0000584606F051F90746DDE9002304F08EFD33
:102A10000022524BCDE9020105F036FE504A514BDF
:102A2000CDE9040105F042FCCDE9060105F050FBBB
:102A30008246204606F038F94FF066324A4BCDE91F
:102A4000060105F033FC074605F042FB0446474803
:102A50000078022806D184F000473946504602F03B
:102A600065FF09E041480078032805D184F000475C
:102A70003946504603F071F83D4800682B4908601C
:102A8000334806603448056009B0BDE8F08F10B5E2
:102A900038480068002877D1202037490860374837
:102AA000007808B9012000E000203449087034485B
:102AB000007801280BD133480078401CC0B231495E
:102AC00008700A2803D1002008702D4908702B488F
:102AD00000785AE00200002005000020BC00002021
:102AE000B400002036000020300000200300002049
:102AF00004000020080000200C000020AC00002092
:102B0000B00000209A9999999999E93F9999C93FFC
:102B1000B800002000401C4600401CC64C000020AD
:102B200048000020A80000201C00002020000020F9
:102B30000600002044000020400000200700002084
:102B400018000020700100206001002024000020F7
:102B500028000020660100203C0000200080664024
:102B6000F1D4C853FB2109406666304000000020C4
:102B7000100100201481214214040140940000201F
:102B80003500002034000020A6E0012834D153484D
:102B90000078FFF799FE52480068401C50490860D1
:102BA000962807D14F495048006806F075FB01D2BE
:102BB000FFF7A3FAFEF7BDF94C4908604C480068DE
:102BC000401C4B4908604B48006848490968084464
:102BD000484908604648006864280BD108460068E8
:102BE000642190FBF1F044490860002041490860ED
:102BF0003F490860002010BD0220FEF710FC404253
:102C00003E4908600420FEF70AFC3D49086033484D
:102C10000078FFF759FEFEF721FA3A48007810B91C
:102C20006420FDF7B3FD37480078012802D1002069
:102C3000FDF7ACFDFFF721FE334801682A48006824
:102C4000FFF7FCFD314908602D4801682B480068FA
:102C5000FFF7D0FC2E4908602E480268284801681A
:102C600026480068FFF7F1FB2B49086027480068F9
:102C700027490968401A2849096808442749086013
:102C80002248006822490968401A23490968401A05
:102C900023490860FFF7A8FB194803681748026832
:102CA000114801681F480068FFF739FB10B1012087
:102CB0001D49087012480268104801680A480068F7
:102CC000FFF7F2FA10B100201749087014480168A4
:102CD00012480068FFF7B5FA00208CE700000020DA
:102CE000980000200000F041200000209C000020FF
:102CF000A0000020A40000201C00002008000020EC
:102D00000C00002036000020240000208800002055
:102D10008C000020280000209000002010000020DF
:102D2000140000203C0000200600002038B50446B6
:102D3000FB4890F82400C0B114B10220009001E0DB
:102D400000200090F64A1268D17BF54A526810784C
:102D50006B460122FEF7A8FC10B14FF0FF3038BDE2
:102D60009DF80010EE48417423E0ED48807A10B9D8
:102D70004FF0FF30F3E724B1E948407C08B1002070
:102D8000EDE714B10120009001E000200090E44A3A
:102D90001268D17BE24A526810786B460122FEF736
:102DA00083FC10B14FF0FF30D9E79DF80010DC48EC
:102DB00041740020D3E738B5002419E0D8480068F2
:102DC000C07AA04204D0D6480068407DA04200D11D
:102DD0000CE0D349496808786B4601222146FEF78A
:102DE000C5FC10B14FF0FF3038BD00BF601CC4B24D
:102DF000CB4840680079A042E0DC0020F4E770B5E1
:102E000004460D46C6480068C07AA04204D0C448B3
:102E10000068407DA04202D14FF0FF3070BDC04835
:102E200040680079A04202DC4FF0FF30F6E7BC4971
:102E3000496808782B4601222146FEF797FCEDE70A
:102E400038B50446B64890F82300A04201D10020CE
:102E500038BD14B13020009001E000200090B0484F
:102E6000807C20B19DF8000040F002000090AC484A
:102E700090F8220020B19DF8000040F08000009002
:102E8000A74A1268117DA64A526810786B46012243
:102E9000FEF70AFC10B14FF0FF30D9E7A04880F8E8
:102EA00023400020D4E738B5044604F0700010B188
:102EB0000120009005E014B10020009001E04020C6
:102EC0000090974A1268917C954A526810786B4638
:102ED0000122FEF7E9FB20B1002191488172481ED2
:102EE00038BD9DF8000020F040018D48017300209E
:102EF000009004F0400020B99DF8000040F004006C
:102F0000009004F0200020B99DF8000040F002007D
:102F1000009004F0100020B99DF8000040F001007E
:102F2000009004F0080020B99DF8000040F038003F
:102F300000907B4A1268D17C794A526810786B46BF
:102F40000122FEF7B1FB20B1002175488172481EB5
:102F5000C6E724B1082C02D00020FFF771FF7048AB
:102F60008472002101753220FDF7E8F90020B7E7EF
:102F700038B504466A48807CA04201D1002038BDA3
:102F8000002C46D0664A12681179654A526810785A
:102F90006B460122FEF7EAFB10B14FF0FF30EEE77F
:102FA0009DF8000020F0200000905D4A1268117921
:102FB0005B4A526810786B460122FEF775FB10B130
:102FC0004FF0FF30DBE70320FDF7B8F90220009057
:102FD000534890F8220020B19DF8000040F0800096
:102FE00000904F4890F8230020B19DF8000040F079
:102FF000300000904A4A1268117D494A52681078A0
:103000006B460122FEF750FB002851D04FF0FF30F5
:10301000B5E7434A12681179414A526810786B4605
:103020000122FEF7A3FB10B14FF0FF30A7E73C48A9
:10303000807A00F0010028B19DF8000040F02000E7
:10304000009004E09DF8000020F020000090344A39
:1030500012681179324A526810786B460122FEF7E5
:1030600023FB10B14FF0FF3089E70320FDF766F92D
:103070002B4890F8220010B18020009001E0002041
:103080000090274890F8230020B19DF8000040F000
:1030900030000090224A1268117D214A526810784F
:1030A0006B460122FEF700FB10B14FF0FF3066E7E0
:1030B0001B488474002062E708B51948807A10B96B
:1030C0004FF0FF3008BD00200090154A1268D17BF8
:1030D000134A526810786B460122FEF7E5FA10B1E8
:1030E0004FF0FF30EEE70E4A126851790C4A5268F1
:1030F00010786B460122FEF7D7FA10B14FF0FF307F
:10310000E0E7074A12681179054A526810786B4661
:103110000122FEF7C9FA28B14FF0FF30D2E70000D4
:10312000E0000020F74890F82400002850D00C2040
:103130000090F44A12681179F24A526810786B468E
:103140000122FEF7B1FA10B14FF0FF30BAE7C0200C
:103150000090EC48807A00F0010020B19DF800005A
:1031600040F020000090E74A12681179E54A526861
:1031700010786B460122FEF797FA10B14FF0FF303E
:10318000A0E7E048407C10B10220009001E0002060
:103190000090DC4A1268D17BDA4A526810786B469C
:1031A0000122FEF781FA10B14FF0FF308AE70020CC
:1031B0000090D44A12685179D24A526810786B460E
:1031C0000122FEF771FA002852D04FF0FF3079E764
:1031D00004200090CB4A12681179CA4A52681078CC
:1031E0006B460122FEF760FA10B14FF0FF3069E73D
:1031F000C448807C20B9C348807A00F0010010B92F
:103200004020009001E060200090BE4A12681179D1
:10321000BC4A526810786B460122FEF745FA10B19D
:103220004FF0FF304EE7B748407C10B101200090CE
:1032300001E000200090B34A1268D17BB14A526885
:1032400010786B460122FEF72FFA10B14FF0FF30D5
:1032500038E7AC4A12685179AA4A52681078A94BEB
:1032600010330122FEF720FA10B14FF0FF3029E7AA
:10327000002027E770B50446002624F00104A14889
:1032800090F8240008B1002070BD9E48807A10B9E3
:103290004FF0FF30F8E79B48057C807A2040994941
:1032A00008740846007CA04202D04FF0FF3600E0D0
:1032B000002614B99348007D18B10120FFF736FDB0
:1032C00002E00020FFF732FD3CB1FFF7F5FE20B130
:1032D0008C4805744FF0FF30D6E73046D4E738B558
:1032E00004468848807A10B94FF0FF3038BDBC2CB6
:1032F00002DB0120009015E0622C02DB022000902E
:1033000010E02A2C02DB032000900BE0142C02DBDF
:103310000420009006E00A2C02DB0520009001E06A
:10332000062000907748C07A9DF80010884201D1AD
:103330000020DBE7734A12689178724A526810786D
:103340006B460122FEF7B0F910B14FF0FF30CDE728
:103350009DF800106B48C1720020C7E738B50446DD
:10336000282C02DD4FF0FF3038BDDCB90020FFF71C
:1033700067FD00208DF8000007208DF80100614AEC
:103380001268917C5F4A526810786B460222FEF701
:103390008BF910B14FF0FF30E6E700215948017575
:1033A0000020E1E70120FFF74BFD20208DF8000011
:1033B000012C06D100208DF801000520FFF78FFFBA
:1033C00017E0052C06DC01208DF801000520FFF731
:1033D00086FF0EE0142C06DC02208DF801000A2086
:1033E000FFF77DFF05E003208DF801001420FFF7B3
:1033F00076FF9DF80100072101EB8010C0B28DF827
:103400000100404A1268917C3E4A526810786B462F
:103410000222FEF749F910B14FF0FF30A4E708216E
:103420003848817200210173012101750020FFF7E6
:1034300021FF002098E738B504463248807A10B959
:103440004FF0FF3038BD2F4890F8240010B14FF0F6
:10345000FF30F7E72B48007D50B134B1282C04DC55
:10346000E0B2FFF77BFF0020ECE70020FFF776FFDC
:10347000042C01DA042404E0B4F57A7F01DD4FF472
:103480007A744FF47A7090FBF4F0401EC0B2009052
:103490001C4A126851781B4A526810786B46012208
:1034A000FEF702F910B14FF0FF30CBE79DF80000B6
:1034B000401C4FF47A7191FBF0F081B21148C18148
:1034C0000146C9894810FFF70AFF0020BAE738B55E
:1034D00004460C48807A10B94FF0FF3038BD022CFA
:1034E00006D0042C07D0082C08D0102C0FD10BE0EC
:1034F000002000900EE0082000900BE010200090CB
:1035000008E00000E00000201820009002E04FF0EA
:10351000FF30E3E700BFF948407A9DF80010B0EBB8
:10352000E10F01D10020D9E7F44A1268D179F34ABA
:10353000526810786B460122FEF7B6F810B14FF0D2
:10354000FF30CBE79DF80000C110EC48417200202D
:10355000C4E738B50446E948807A10B94FF0FF3027
:1035600038BDFA2C09D0B4F5FA7F09D0B4F57A7FCA
:1035700009D0B4F5FA6F0CD108E0002000900BE000
:103580000820009008E01020009005E0182000902E
:1035900002E04FF0FF30E3E700BFD848007A9DF823
:1035A0000010B0EBE10F01D10020D9E7D34A126837
:1035B0009179D24A526810786B460122FEF774F86E
:1035C00010B14FF0FF30CBE79DF80000C010CB49A1
:1035D00008720020C4E71CB580208DF80000C74A9F
:1035E0001268917CC54A526810786B460122FEF73A
:1035F0005BF810B14FF0FF301CBD6420FCF79EFE5D
:1036000000208DF80000BD4A1268917CBB4A5268C8
:1036100010786B460122FEF747F810B14FF0FF30EB
:10362000EAE7B64A1268917DB44A526810786B4650
:103630000622FEF79BF810B14FF0FF30DCE79DF853
:103640000500C007400F9DF8031001F0010140EA9A
:1036500041009DF8011001F0010140EA010494B11C
:10366000012C03D10121A548C17431E0022C03D102
:103670000021A248C1742BE02146A1A003F044FA26
:103680004FF0FF30B8E79D4A1268D1789B4A5268E4
:1036900010786B460122FEF769F810B14FF0FF3049
:1036A000AAE79DF8000000F00F042CB99E4803F033
:1036B0002BFA4FF0FF309FE7042C06D19BA003F0BC
:1036C00023FA01218D48C17402E000218B48C174A6
:1036D000FF218A488172FF2088490872FF218748AC
:1036E0004172C1724FF6FF71C181FF210174817473
:1036F0000121017380F82210002180F82310417508
:1037000001751630016041608160163880F8241020
:1037100080F82510C1844FF4FA60FFF71AFF10B14A
:103720004FF0FF3068E70220FFF7D1FE10B14FF0F5
:10373000FF3061E72A20FFF7D2FD10B14FF0FF30D4
:103740005AE73220FFF777FE10B14FF0FF3053E712
:103750000020FFF78FFD10B14FF0FF304CE7002045
:10376000FFF706FC10B14FF0FF3045E70020FFF7F0
:103770009AFB002040E770477CB504460D465F4841
:10378000807A00F0700010B94FF0FF307CBD5B4ACA
:103790001268117B594A526810786B460622FDF771
:1037A000E5FF10B14FF0FF30F0E79DF801009DF804
:1037B000001040EA012000B220809DF803009DF82F
:1037C000021040EA012000B260809DF805009DF8DB
:1037D000041040EA012000B2A08015B12846FFF78E
:1037E000CAFF0020D2E77CB504460D464348807AE4
:1037F00000F0080010B94FF0FF307CBD3F4A12685E
:10380000517B3E4A526810786B460622FDF7AEFFA8
:1038100010B14FF0FF30F0E79DF801009DF8001067
:1038200040EA012000B220809DF803009DF80210BC
:1038300040EA012000B260809DF805009DF8041068
:1038400040EA012000B2A08015B12846FFF793FF9F
:103850000020D2E72DE9FE4F05460C462748807A26
:1038600018B94FF0FF30BDE8FE8F244A1268917BF3
:10387000224A5268107802AB0222FDF777FF10B19E
:103880004FF0FF30EFE79DF809009DF8081040EA7F
:10389000012006B214B12046FFF76DFF17494968B1
:1038A000C88805F0E5FB154901904968B1F90800A1
:1038B00005F0C6FB8346304605F0C2FB5946009032
:1038C00005F026FD8246019905F088FA81461F49D8
:1038D00005F016FA80464FF08F4105F011FC0746BF
:1038E00005F072FB28600020BDE710B588B00446E3
:1038F0001CB94FF0FF3008B010BD29E0E0000020F7
:10390000556E737570706F7274656420736F667432
:10391000776172652070726F64756374207265766A
:103920002025642E0A00000010AD000848616C6676
:103930002073656E73697469766974792070617239
:103940007420666F756E642E0D0A000000000C4234
:10395000206830B9606820B9A06810B9002008B0AC
:1039600010BDFA494968087806AB03221146FDF7F5
:10397000FDFE10B14FF0FF30F1E79DF8180008216F
:1039800001EB201000F00F00ADF800009DF81900C9
:1039900001EB201000F00F00ADF802009DF81A00B6
:1039A00001EB201000F00F00ADF80400206841008A
:1039B000BDF90000403091FBF0F000B2ADF810000E
:1039C00060684100BDF90200403091FBF0F000B2A8
:1039D000ADF81200A0684100BDF90400403091FB31
:1039E000F0F000B2ADF81400D8494968087806AB89
:1039F00006221146FDF7BAFE10B14FF0FF30AEE7D8
:103A00009DF819009DF8181040EA012000B2ADF8A9
:103A100008009DF81B009DF81A1040EA012000B232
:103A2000ADF80A009DF81D009DF81C1040EA012029
:103A300000B2ADF80C00BDF81000BDF80810084445
:103A400000B2ADF81000BDF81200BDF80A1008442D
:103A500000B2ADF81200BDF81400BDF80C10084417
:103A600000B2ADF81400BDF81000000A8DF818007F
:103A7000BDF81000C0B28DF81900BDF81200000AA0
:103A80008DF81A00BDF81200C0B28DF81B00BDF809
:103A90001400000A8DF81C00BDF81400C0B28DF8A7
:103AA0001D00AA494968087806AB06221146FDF7B1
:103AB000FBFD10B14FF0FF3051E700204FE701460A
:103AC000A248007A30B1012807D0022809D0032883
:103AD0000FD10AE0FA2008800EE04FF4FA70088057
:103AE0000AE04FF47A70088006E04FF4FA6008802C
:103AF00002E00020088000BF00BF002070470146A0
:103B00009248407A30B1012807D0022808D0032813
:103B10000CD108E0022008700BE00420087008E0D7
:103B20000820087005E01020087002E04FF0FF3018
:103B3000704700BF8548C07C18B108784006000E69
:103B400008700020F4E701468048C07A082817D2A0
:103B5000DFE800F01704070A0D101318BC200880D6
:103B600013E06220088010E02A2008800DE0142075
:103B700008800AE00A20088007E00520088004E0A9
:103B800000BF00BF0020088000BF00BF00207047BA
:103B900001466E4890F8240010B14FF0FF30704796
:103BA0006A48C08908800020F9E7014600200880A3
:103BB000401E704701464FF0FF3070470146634892
:103BC000007A30B1012807D0022808D003280CD190
:103BD00008E05F4808600BE05E48086008E05E4867
:103BE000086005E05D48086002E04FF0FF30704774
:103BF00000BF0020FBE701465448407A30B101285D
:103C000008D002280AD0032810D10BE04FF48040DE
:103C100008800EE041F69C7008800AE04FF4805066
:103C2000088006E04FF40060088002E04FF0FF30AB
:103C3000704700BF4548C07C10B10888401008801C
:103C40000020F5E701464148007C087000207047DD
:103C500001463E48807A10B10120087001E0002042
:103C600008700020704738B504463848807A10B98B
:103C70004FF0FF3038BD354A1268117C334A526824
:103C800010786B460222FDF771FD10B14FF0FF3046
:103C9000F0E79DF801009DF8001040EA012000B215
:103CA00020800020E6E72DE9FE4F07468846924631
:103CB0001D46DDF830B000260024244890F824008A
:103CC00010B1601EBDE8FE8F002028701F48807A6A
:103CD00010B94FF0FF30F5E71C48007C10B94FF0E9
:103CE000FF30EFE71948007C00F0400008B1B01C3D
:103CF000C6B21648007C00F0200008B1B01CC6B265
:103D00001248007C00F0100008B1B01CC6B20F4889
:103D1000007C00F0080008B1B01DC6B20B4A126862
:103D2000917A0A4A526810786B460222FDF71EFD0E
:103D300010B14FF0FF30C5E79DF801009DF800106D
:103D400040EA0129B1450BDA0020BBE7E000002082
:103D50000000034300008342333303423333834183
:103D6000FC4840684088B9EB600F17DDF94A1268DB
:103D7000517CF84A526810786B460122FDF7F6FC38
:103D800010B14FF0FF309DE79DF8000000F01000EB
:103D900020B1FFF791F96FF0010093E75046FFF76C
:103DA000EAFCEC4A1268D17AEA4A526810786B460B
:103DB0003246FDF7DBFC10B14FF0FF3082E799FB94
:103DC000F6F0401E8BF8000000202870B4422AD084
:103DD000E048007C00F0080028B3601C1DF80000DB
:103DE0001DF8041040EA012000B2A8F80000E01C11
:103DF0001DF80010A01C1DF8000041EA002000B2D0
:103E0000A8F80200601D1DF80010201D1DF800001C
:103E100041EA002000B2A8F80400287840F0080029
:103E20002870A01D84B2B44213D0CA48007C00F0B0
:103E3000400070B1601C1DF800001DF8041040EA3D
:103E4000012000B23880287840F040002870A01C83
:103E500084B2B44213D0BF48007C00F0200070B19F
:103E6000601C1DF800001DF8041040EA012000B29B
:103E70007880287840F020002870A01C84B2B442DA
:103E800013D0B448007C00F0100070B1601C1DF825
:103E900000001DF8041040EA012000B2B880287824
:103EA00040F010002870A01C84B200200AE7F8B58A
:103EB00004460F461646A74890F8240010B94FF064
:103EC000FF30F8BDA348807A10B94FF0FF30F8E713
:103ED000A04A1268917A9F4A526810786B46022273
:103EE000FDF744FC10B14FF0FF30EAE79DF8010008
:103EF0009DF8001040EA0125A54203DA0020307049
:103F0000401EDEE7934840684088B5EB600F17DD40
:103F1000904A1268517C8F4A526810786B46012291
:103F2000FDF724FC10B14FF0FF30CAE79DF8000008
:103F300000F0100020B1FFF7BFF86FF00100C0E7FC
:103F4000E2B2844B1B68D97A824B5B6818783B4697
:103F5000FDF70CFC10B14FF0FF30B2E795FBF4F029
:103F6000401E30700020ACE701467A4880F82210ED
:103F7000002070477CB5054676494968087801AB52
:103F800004220D21FDF7F2FB08B107207CBD9DF84E
:103F90000700C0F301109DF8041001F0E00140EAB1
:103FA000E1008DF800009DF80700C0F381009DF846
:103FB000051001F0E00140EAE1008DF801009DF8F4
:103FC000070000F003009DF8061001F0E00140EA50
:103FD000E1008DF8020000241CE01DF8040018B96F
:103FE000002045F8240013E05B4845F8240006E073
:103FF00055F82400594905F083F845F824001DF8C8
:104000000400401EC0B20DF804000028F0D100BF2B
:10401000601CC4B2032CE0DB0020B7E72DE9FE4FA3
:1040200006460F4600256846FFF7A4FF002442E03D
:1040300056F8240057F82410A0EB010ABAF1000F3B
:1040400001DB514601E0CAF10001084604F0F8FF27
:1040500083464FF08F4104F0C1FE80465DF8240096
:10406000002104F07DFF16D05DF82410404604F0D6
:10407000B5FE82464FF07E5105F04AF9814629F09F
:10408000004A3748416A504605F006F912D201202D
:10409000A04005430EE03248C169404604F0FCFFF1
:1040A00005D32F48016A404605F0F6F802D20120F8
:1040B000A0400543641C032CBADB2846BDE8FE8FF4
:1040C0002DE9FC5F06460F4600252249496808781D
:1040D00001AB03220D21FDF749FB10B10720BDE81C
:1040E000FC9F9DF8040000F01F008DF804009DF86F
:1040F000050000F01F008DF805009DF8060000F097
:104100001F008DF80600002462E056F8240057F8DE
:104110002410A0EB010BBBF1000F01DB594601E0BD
:10412000CBF10001084604F08BFF4FF08F41009067
:1041300004F054FE814601A8005DC0B30849086838
:1041400004F096FF83465946064804F047FE804631
:104150000FE00000E00000207B14AE3E1D5A843FBB
:10416000789F000800B04C45FE49404604F0C8FF67
:10417000804601A8005D401EC0B201A90855002874
:10418000F2D14146484604F029FE83464FF07E5165
:1041900005F0BEF882462AF0004BF3488169584684
:1041A00005F07AF813D20120A04005430FE0FFE7A5
:1041B000ED480169484604F06FFF05D3EA484169BC
:1041C000484605F069F802D20120A0400543641C6E
:1041D000032C9ADB284682E72DE9F04F87B005468D
:1041E0000C46914601208DF8100000208DF811003A
:1041F000DE4A1268917CDD4A5268107804AB0222D4
:10420000FDF752FA20B14FF0FF3007B0BDE8F08F54
:10421000C820FCF793F800208DF81000D34A1268EC
:10422000D17BD24A5268107804AB0122FDF73CFAE8
:1042300010B14FF0FF30E8E7CC4A12685179CB4A11
:104240005268107804AB0122FDF72EFA10B14FF03E
:10425000FF30DAE7C54A1268917CC44A5268107888
:1042600004AB0122FDF720FA10B14FF0FF30CCE78C
:10427000BE4A1268D17DBD4A5268107804AB012253
:10428000FDF712FA10B14FF0FF30BEE7B74A1268DF
:104290001179B64A5268107804AB0122FDF704FA8E
:1042A00010B14FF0FF30B0E70C208DF81000AF4A8E
:1042B00012681179AD4A5268107804AB0122FDF7FB
:1042C000F3F910B14FF0FF309FE70F20FCF736F8FD
:1042D000A648806A407A8DF81000A44A1268917846
:1042E000A24A5268107804AB0122FDF7DDF910B143
:1042F0004FF0FF3089E79D48806A007A8DF8100002
:104300009A4A12685178994A5268107804AB01228F
:10431000FDF7CAF910B14FF0FF3076E7B9F1000FA1
:1043200007D09248806A807A40F0E0008DF8100053
:1043300004E08E48806A807A8DF810008B4A1268FB
:1043400091798A4A5268107804AB0122FDF7ACF9E2
:1043500010B14FF0FF3058E7B9F1000F07D0834894
:10436000806AC07A40F0E0008DF8100003E07E48DB
:10437000C07A8DF810007D4A1268D1797B4A526864
:10438000107804AB0122FDF78FF910B14FF0FF3028
:104390003BE7B9F1000F02D0C820FBF7CFFF402068
:1043A0008DF81000714A12681179704A52681078BD
:1043B00004AB0122FDF778F910B14FF0FF3024E78C
:1043C00078208DF81000694A12685179674A52685E
:1043D000107804AB0122FDF767F910B14FF0FF3000
:1043E00013E761498889FBF7A9FF00208DF81000C9
:1043F0005E4A126851795D4A5268107804AB012216
:10440000FDF752F910B14FF0FF30FEE6574A12683F
:10441000917A564A5268107804AB0222FDF7A6F949
:1044200010B14FF0FF30F0E69DF811009DF810102C
:1044300040EA012B0C209BFBF0F0C6B20020A860E4
:1044400068602860A06060602060824665E0474A3E
:104450001268D17A454A5268107804AB0C22FDF7F5
:1044600085F910B14FF0FF30CFE69DF811009DF8AF
:10447000101040EA012000B2ADF808009DF81300CA
:104480009DF8121040EA012000B2ADF80A009DF834
:1044900015009DF8141040EA012000B2ADF80C00A0
:1044A000BDF90810206808442060BDF90A10606852
:1044B00008446060BDF90C10A0680844A0609DF835
:1044C00017009DF8161040EA012000B2ADF8000078
:1044D0009DF819009DF8181040EA012000B2ADF8CF
:1044E00002009DF81B009DF81A1040EA012000B25E
:1044F000ADF80400BDF90010286808442860BDF933
:104500000210686808446860BDF90410A86808448F
:10451000A8600AF1010000F0FF0AB24597DB1248DB
:10452000D0F800C02868C117090441EA1041070407
:1045300062460023384602F0C2FA32460023CDE933
:10454000020102F0BCFA28600748D0F800C0686891
:10455000C117090441EA10410704624600233846A6
:1045600006E0000054E3853F789F0008E00000204B
:1045700002F0A5FA32460023CDE9020102F09FFACB
:104580006860FE48D0F800C0A868C117090441EA75
:104590001041070462460023384602F090FA324682
:1045A0000023CDE9020102F08AFAA860F348D0F8AE
:1045B00004C02168C817000440EA11480F0462468D
:1045C00000233846414602F07AFA32460023CDE90C
:1045D000020102F074FA2060E848D0F804C0606874
:1045E000C117090441EA1041070462460023384616
:1045F00002F065FA32460023CDE9020102F05FFACB
:104600006060DE48D0F804C0A068C117090441EA20
:104610001041070462460023384602F050FA324641
:104620000023CDE9020102F04AFAA060A068002848
:1046300004DDA068A0F58030A06003E0A06800F56C
:104640008030A0600020E0E538B50446CC4890F802
:104650002400A04201D1002038BD24B3C84890F8FE
:10466000250010B94FF0FF30F6E70020FEF75EFBA3
:104670000020FEF77DFCC249C88CFEF7DCFE00205E
:104680000090BF49496808786B4601222321FDF755
:104690000BF80121BA4880F824100120FEF746FBF0
:1046A000FEF70AFD13E00020FEF740FBB448007C53
:1046B0000090B349496808786B4601222321FCF732
:1046C000F3FF0021AE4880F82410FEF7F5FC00202F
:1046D000C2E72DE9F04F8DB083460F4602200C90C3
:1046E000A74890F8240020B10020FFF7ADFF012675
:1046F00000E0002603A8FFF7E2F905A8FFF7FFF99D
:1047000001A8FFF720FA02A8FFF742FA9C4890F8A8
:104710000AA004A8FFF796FA002407E00022394611
:104720005846FFF759FD00B902E0641C022CF5DB86
:1047300000BF022C01D1002528E0002407E001225F
:1047400006A909A8FFF748FD00B902E0641C022C85
:10475000F5DB00BF022C01D1002517E006A9384681
:10476000FFF75CFC00F0FF0809A95846FFF7A8FC1A
:1047700000F0FF090025B9F1000F01D145F0010556
:10478000B8F1000F01D145F0020500BFFF207C49C0
:104790000872FF217A484172C1724FF6FF71C181E0
:1047A000FF218172017401210173BDF80C00FEF735
:1047B000D0FE9DF81400FEF78AFEBDF80400FEF757
:1047C0008EFDBDF80800FEF736FE5046FEF76BFB87
:1047D0009DF81000FEF74EFD16B10120FFF734FFE3
:1047E00028460DB0BDE8F08FF8B504460D461646D4
:1047F00016B94FF0FF30F8BD6148807A10B94FF01C
:10480000FF30F8E720128DF80000E0B28DF80100CB
:104810009DF8010028445A4949684989884202DDC7
:104820004FF0FF30E7E7564A1268117E544A52684B
:1048300010786B460222FCF737FF10B14FF0FF30C3
:10484000D9E7EAB24E4B1B68597D4D4B5B6818782F
:104850003346FCF729FF10B14FF0FF30CBE70020C3
:10486000C9E7F8B504460D46164616B94FF0FF30B5
:10487000F8BD4348807A10B94FF0FF30F8E72012B6
:104880008DF80000E0B28DF801009DF80100284489
:104890003B4949684989884202DD4FF0FF30E7E72C
:1048A000374A1268117E364A526810786B460222E7
:1048B000FCF7FAFE10B14FF0FF30D9E7EAB2304B07
:1048C0001B68597D2E4B5B6818783346FCF74EFF0A
:1048D00010B14FF0FF30CBE70020C9E72DE9F043DE
:1048E00085B005460E4690469946254890F8250025
:1048F00020B14FF0FF3005B0BDE8F08316B94FF09E
:10490000FF30F8E7002423E0281B102801DD1020E9
:1049100000E0281B87B2321939462046FFF764FFB2
:1049200010B14FF0FF30E6E701AA39462046FFF705
:1049300098FF10B14FF0FF30DDE730193A4601A97A
:1049400002F05EF910B16FF00100D4E7E01984B213
:10495000AC42D9DB4FEA28208DF8000008F0FF00B8
:104960008DF80100064A1268917E054A5268107857
:104970006B460222FCF798FE38B103E0789F0008EE
:10498000E00000204FF0FF30B5E701218A4880F8B1
:104990002510A0F826900020ADE70146864890F843
:1049A000240008700020704702464FF0FF30704727
:1049B00001464FF0FF307047F8B505460F461446E4
:1049C000002C70D0B5F5FF5F01DDFF2605E0202D3E
:1049D00001DA012601E0C5F3471607B90127282CA3
:1049E00002DD4FF0FF30F8BD7348407D28BB7248B0
:1049F00090F8240038B10020FFF726FE01216E4810
:104A000080F8201003E000216B4880F820106A48ED
:104A10001630FFF754F868481830FFF770F866480A
:104A20001A30FFF790F864481C30FFF7B1F862487D
:104A3000817A81771F30FFF705F90020FEF776F9BC
:104A40000020FEF78BFC00208DF800005A4A126807
:104A50009178594A526810786B460122FCF724FE7F
:104A600010B14FF0FF30BEE740208DF80000524AF1
:104A70001268D17B504A526810786B460122FCF7CD
:104A800013FE00B165E08DF800608DF801704A4AB0
:104A90001268117A484A526810786B460222FCF775
:104AA00003FE08B155E047E00520FBF747FC42480C
:104AB000407A072101EBC000C0B28DF800003E4AE9
:104AC0001268D1793C4A526810786B460122FCF793
:104AD000EBFD00B13DE020208DF80000012C03D15A
:104AE00000208DF801000EE0052C03DC01208DF87C
:104AF000010008E0142C03DC02208DF8010002E024
:104B000003208DF801009DF80100072101EB8010C2
:104B1000C0B28DF80100284A1268917C264A52687A
:104B200010786B460222FCF7BFFD00B111E00121B5
:104B300021484175002056E71F4A1632002103E044
:104B4000505C00B105E0491C0C29F9D34FF0FF304F
:104B500049E7FF2018490872FF2117484172C172C6
:104B60004FF6FF71C181FF21817201740121017330
:104B70000146887FFEF797F90F49C88AFEF7E9FCDE
:104B80000D49087EFEF7A3FC0B49488BFEF7A7FBF7
:104B90000949888BFEF74FFC0749C87FFEF76AFB7F
:104BA000054890F8200010B10120FFF74DFD0021CD
:104BB00001484175002016E7E000002010B5C82329
:104BC0004FF48062F74940F6F630FFF787FE10BDDC
:104BD00010B586B00446F4A000680390F3A0006806
:104BE0000290F3A000680190F2A00068009004F029
:104BF000030003A9085C8DF8140003A8C4F3C101E5
:104C0000405C8DF8150003A8C4F38111405C8DF859
:104C1000160004F0030002A9085C8DF8100002A839
:104C2000C4F3C101405C8DF8110002A8C4F38111E6
:104C3000405C8DF8120005AA032140F22640FFF7E0
:104C4000D3FD18B14FF0FF3006B010BD04AA032108
:104C500040F22A40FFF7C8FD10B14FF0FF30F3E7F4
:104C6000019805900098049004F0040058B19DF854
:104C7000140040F001008DF814009DF8100040F081
:104C800001008DF8100004F0200058B19DF81500C7
:104C900040F001008DF815009DF8110040F0010072
:104CA0008DF8110004F4807058B19DF8160040F0A2
:104CB00001008DF816009DF8120040F001008DF8FB
:104CC000120005AA03214FF48860FFF78DFD10B193
:104CD0004FF0FF30B8E704AA032140F23140FFF75C
:104CE00083FD10B14FF0FF30AEE7B34804810020E0
:104CF000AAE71FB50446B048007A00F0030054F854
:104D000020000190AC48007A00F0040010B1019836
:104D100040420190A848007AC0F3C10054F8200036
:104D20000290A548007A00F0200010B1029840429D
:104D30000290A148007AC0F3811054F8200003903B
:104D40009D48008900F4807010B1039840420390A0
:104D50009A49019880FB0101800F40EA810001908F
:104D60009649029880FB0110820042EA91700290FD
:104D70009249039880FB0110820042EA91700390EF
:104D80000198000E8DF800000198000C8DF80100CC
:104D90000198000A8DF802000198C0B28DF8030056
:104DA0006A4604214FF47470FFF71EFD18B14FF0EE
:104DB000FF3004B010BD0298000E8DF8000002987C
:104DC000000C8DF801000298000A8DF8020002988C
:104DD000C0B28DF803006A4604214FF47570FFF7E6
:104DE00003FD10B14FF0FF30E3E70398000E8DF89C
:104DF00000000398000C8DF801000398000A8DF85C
:104E000002000398C0B28DF803006A4604214FF4F3
:104E10007670FFF7E9FCCCE770B588B0064601A8CC
:104E2000FEF7E9FEBDF804000021C90341EA504540
:104E3000C4036148007A00F0030056F82000059092
:104E40005D48007A00F0040010B1059840420590DA
:104E50005948007AC0F3C10056F820000690564821
:104E6000007A00F0200010B10698404206905248A7
:104E7000007AC0F3811056F8200007904E48008950
:104E800000F4807010B10798404207900598C11750
:104E9000A0FB042301FB043100FB0510810041EA63
:104EA000927005900698C117A0FB042301FB043102
:104EB00000FB0510810041EA927006900798C11727
:104EC000A0FB042301FB043100FB0510810041EA33
:104ED000927007900598000E8DF808000598000C58
:104EE0008DF809000598000A8DF80A000598C0B2EF
:104EF0008DF80B000698000E8DF80C000698000C3B
:104F00008DF80D000698000A8DF80E000698C0B2C4
:104F10008DF80F000798000E8DF810000798000C10
:104F20008DF811000798000A8DF812000798C0B29A
:104F30008DF8130002AA0C214FF42570FFF754FCE2
:104F400008B070BD30B585B004461DA207CA02ABDB
:104F500007C3C82C03DD4FF0FF3005B030BDC820BB
:104F600090FBF4F0401E85B2280A8DF80000E8B2EC
:104F70008DF801006A46022140F21620FFF734FC4A
:104F800010B14FF0FF30E8E702AA0C2140F6C12033
:104F9000FFF72AFC10B14FF0FF30DEE706488481AE
:104FA0000020DAE7A09F00084CCD6C000CC92C0053
:104FB0003656760026466600000A002009E3CA023B
:104FC000FEF2ABC4AAF1DFDFBBAFDFDF0146FC4876
:104FD00080890880002070472DE9FC4706460F466F
:104FE00006F0070010B1B7F5C86F03DD4FF0FF30D2
:104FF000BDE8FC87384604F03BF88146F14903F0F0
:10500000EDFE80466846FEF77AFD9DF80000022816
:1050100006D0042816D0082826D0102848D135E01C
:105020004FF08D41404604F06BF8814603F0E8FFF5
:1050300084B2E549404604F063F8814603F0E0FF9E
:1050400085B238E04FF08C41404604F059F8814673
:1050500003F0D6FF84B2DD49404604F051F88146A2
:1050600003F0CEFF85B226E04FF08B41404604F0BE
:1050700047F8814603F0C4FF84B2D549404604F0A6
:105080003FF8814603F0BCFF85B214E04FF08A413F
:10509000404604F035F8814603F0B2FF84B2CD49B2
:1050A000404604F02DF8814603F0AAFF85B202E0E5
:1050B0004FF0FF309CE700BF20128DF80400E0B2F3
:1050C0008DF8050028128DF80600E8B28DF807006B
:1050D00006F00100A0B101AA02214FF4EA70FFF727
:1050E00083FB10B14FF0FF3082E70DF10602022181
:1050F0004FF49270FFF778FB10B14FF0FF3077E775
:1051000006F00200A0B101AA02214FF4EC70FFF7F3
:105110006BFB10B14FF0FF306AE70DF10602022180
:105120004FF49470FFF760FB10B14FF0FF305FE772
:1051300006F00400A0B101AA02214FF4EE70FFF7BF
:1051400053FB10B14FF0FF3052E70DF10602022180
:105150004FF49670FFF748FB10B14FF0FF3047E770
:10516000002045E738B504460020009004F0010017
:1051700020B19DF8000040F03000009004F00200E3
:1051800020B19DF8000040F00C00009004F00400F5
:1051900020B19DF8000040F0030000906A46012114
:1051A0004FF4A470FFF720FB38BD38B50446012C3E
:1051B00001DA012402E0042C00DD0424601EC0B2E8
:1051C00000906A46012140F24F10FFF70DFB38BDF9
:1051D00038B50446052094FBF0F085B228128DF80E
:1051E0000000E8B28DF801006A4602214FF4EF702A
:1051F000FFF7FAFA38BD38B50446052094FBF0F005
:1052000085B228128DF80000E8B28DF801006A46D8
:1052100002214FF4ED70FFF7E7FA38BDF8B5054607
:105220000E464FF47A7095FBF0F000FB06F4200E6A
:105230008DF80000200C8DF80100200A8DF8020086
:10524000E0B28DF803006A4604214FF4AE70FFF718
:10525000CBFAF8BD38B50446052094FBF0F084B2D3
:1052600020128DF80000E0B28DF801006A4602219C
:105270004FF4AD70FFF7B8FA38BD38B504460520D5
:1052800094FBF0F084B220128DF80000E0B28DF8AB
:1052900001006A4602214FF4AC70FFF7A5FA38BD51
:1052A00038B5044614B94FF0FF3038BD6A460421C2
:1052B0004FF45870FFF7D5FA10B14FF0FF30F4E714
:1052C0009DF8000000069DF8011040EA01409DF89D
:1052D000021040EA01209DF80310084320600020DE
:1052E000E3E738B50446200E8DF80000200C8DF859
:1052F0000100200A8DF80200E0B28DF803006A4632
:1053000004214FF45870FFF76FFA38BD38B50446E2
:1053100014B94FF0FF3038BD6A4604214FF4717064
:10532000FFF79FFA10B14FF0FF30F4E79DF800004F
:1053300000069DF8011040EA01409DF8021040EA85
:1053400001209DF80310084300EB800080002060DE
:105350000020E0E738B504461420B4FBF0F4200E3A
:105360008DF80000200C8DF80100200A8DF8020055
:10537000E0B28DF803006A4604214FF47170FFF724
:1053800033FA38BD38B5044664B120208DF80000EA
:1053900028208DF8010030208DF8020038208DF88B
:1053A000030004E0A3220421684601F055FC6A468C
:1053B000042140F69E20FFF717FAFDF77DFE38BD69
:1053C000000A002000004843000040460000C0459D
:1053D000000040450000C04438B5044664B1C02018
:1053E0008DF80000C2208DF80100C4208DF8020065
:1053F000C6208DF8030004E08B220421684601F0EA
:105400002BFC6A46042140F69820FFF7EDF9FDF7E2
:1054100053FE38BD3EB504466CB1FDA1D1E9002074
:105420008968CDE9002002916A4609214FF497600E
:10543000FFF7DAF93EBDF9A2D2E900109268CDE992
:10544000010200916A4609214FF49760FFF7CCF9F9
:10545000F0E73EB5044602208DF80000CA208DF822
:105460000100E3208DF8020009208DF803006A4650
:1054700004216820FFF7B8F9A3208DF8000004F09C
:10548000400048B1C0208DF80100C8208DF802000E
:10549000C2208DF8030006E0A3208DF801008DF8EE
:1054A00002008DF8030004F4C07048B1C4208DF8E8
:1054B0000400CC208DF80500C6208DF8060006E01B
:1054C000A3208DF804008DF805008DF80600A320B8
:1054D0008DF807008DF808008DF809006A460A214A
:1054E00040F6A720FFF780F904F0030018B1202050
:1054F0008DF8000002E0D8208DF800006A460121F6
:1055000040F6B620FFF770F904F0200018B1012032
:10551000FFF780FF02E00020FFF77CFF04F4C0707B
:1055200008B304F4807060B1B2208DF800008B20C5
:105530008DF80100B6208DF802009B208DF8030045
:105540000BE0B0208DF8000080208DF80100B42021
:105550008DF8020090208DF803006A46042140F681
:10556000A220FFF741F904F0010020B3F8208DF8E4
:1055700000006A4601214FF40B60FFF735F9FA216C
:105580000720FFF729FD0720FFF7ECFD0120FFF7BB
:105590000CFE6420FFF71CFE4FF4FA70FFF72BFEA1
:1055A000C821A148FFF73AFE2820FFF753FE0A2042
:1055B000FFF763FE08E0D8208DF800006A4601215D
:1055C0004FF40B60FFF710F904F0020018B1D92076
:1055D0008DF8000002E0D8208DF800006A46012115
:1055E00040F23D70FFF700F904F0040018B101200B
:1055F000FFF7F2FE02E00020FFF7EEFE04F01000DD
:1056000018B10120FFF7BEFE02E00020FFF7BAFE4E
:1056100044F0080085494881FDF74EFD002083498C
:10562000887304F0400018B10846807B801D8873A1
:1056300004F4C07020B17D48807B801D7B49887355
:1056400004F0140020B17948807B103077498873CA
:1056500004F0030020B17548807B001D73498873F6
:1056600000203EBD014671484089088000207047F7
:105670002DE9F0410446E07800F0C006E07800F043
:105680003F05607800F0010098B1EF102846E91757
:1056900005EB5171C910A5EBC101491C01F0FF08D0
:1056A0006248006820B16148414602683846904728
:1056B00000BF607800F0080030B15C48406818B165
:1056C000B0115A4A516888470020BDE8F08110B5F2
:1056D00086B0044656A207CA03AB07C357A207CA3F
:1056E0008DE80700012C09D0022C0ED103AA0B2152
:1056F00040F68220FFF778F806B010BD6A460B210D
:1057000040F68220FFF770F8F6E74FF0FF30F3E73E
:105710002DE9F04F8DB00746884615469946DDE9DC
:10572000166B0024002030804049887B5A4605A92A
:10573000FEF7BDFB18B1601E0DB0BDE8F08F3B4811
:10574000807A00F01400002861D09DF81400000653
:105750009DF8151040EA01409DF8161040EA01201E
:105760009DF81710084328609DF8180000069DF862
:10577000191040EA01409DF81A1040EA01209DF8F6
:105780001B10084368609DF81C0000069DF81D1062
:1057900040EA01409DF81E1040EA01209DF81F10CC
:1057A0000843A8609DF8200000069DF8211040EAFB
:1057B00001409DF8221040EA01209DF82310084383
:1057C000E86004F11000C4B2286800140190686811
:1057D00000140290A86800140390E8680014049074
:1057E00001984043029901FB0100039901FB01006C
:1057F000049901FB010ABAF1706F02DBBAF1885F0C
:1058000022DDFDF759FC00203080401E94E721E0A6
:10581000B8AAB38DB4980D355D000000B8AAAAAA45
:10582000B088C3C5C700000009E3CA02000A00200F
:10583000D8B1B9F38BA391B609B4D900DAB1B9F3F1
:105840008BA391B6DAB4DA00B6F9000040F48070A8
:10585000308000BF3448807A00F0400020B305A9B2
:10586000601C085C095D40EA012000B2A8F8000055
:1058700005A9E01C095C05AAA01C105C41EA0020F7
:1058800000B2A8F8020005A9601D095C201D105C8B
:1058900041EA002000B2A8F80400A01DC4B2B6F985
:1058A000000040F0080030801F48408900F4C070BC
:1058B00008B305A9601C085C095D40EA012000B23C
:1058C000388005A9E01C095C05AAA01C105C41EA0F
:1058D000002000B2788005A9601D095C201D105CC5
:1058E00041EA002000B2B880A01DC4B2B6F90000A1
:1058F00040F0700030800C48807A00F0030018B14E
:1059000005A90819FFF7B4FE4846FDF734FF00204B
:1059100012E7014604480160002070470146024832
:105920004160002070470000000A00202DE9F0418E
:1059300005460C46AA480168204603F0E9FC0746E4
:10594000A8480168384603F0DBFB0646A648016814
:10595000304603F0D5F9A4490860A4484168A4483A
:10596000006803F0D5FC0646A0488168304603F085
:10597000CFFCA04908609D48C06880F000404860A6
:105980009A48C06880F0004088609B480068C86002
:1059900008689449096803F0B3FB06469348016818
:1059A000304603F0ADF991490860924948688D4945
:1059B000096803F0A5FB06468C484168304603F0B1
:1059C0009FF98A4948608B4988688649096803F0CD
:1059D00097FB064685488168304603F091F9834974
:1059E00088608449C8687F49096803F089FB0646D6
:1059F0007E48C168304603F083F97C49C8607A4824
:105A00000168284603F084FC7C4908607C480078E3
:105A100003F02EFB064675480168304603F070FB24
:105A2000784908607648007803F022FB06466F4804
:105A30008168304603F064FB734908607048007861
:105A400003F016FB07466F480168384603F058FB21
:105A500006466E480168304603F052F96C4908600A
:105A6000084601686748006803F0B8F969490860AA
:105A7000674801686448006803F0B0F96649086047
:105A800060480068654908605D48007803F0F0FAF6
:105A9000064656484168304603F032FB60490860CC
:105AA0005E4801685B48006803F02AFB06464F48E1
:105AB0000168304603F021FC4C49086058480168F1
:105AC0005448006803F01CFB0646484841683046CD
:105AD00003F013FC45494860504801684E4800688F
