:020000040800F2
:10000000700600209D010008A1010008A30100085E
:10001000A5010008A7010008A901000800000000D0
:10002000000000000000000000000000AB0100081C
:10003000AD01000800000000AF010008B101000898
:10004000B3010008B3010008B3010008B3010008C0
:10005000B3010008B3010008B3010008B3010008B0
:10006000B3010008B3010008B3010008B3010008A0
:10007000B3010008B3010008B3010008B301000890
:10008000B3010008B3010008B3010008B301000880
:10009000B3010008B3010008B3010008B301000870
:1000A000B3010008B3010008B3010008B301000860
:1000B000B3010008B3010008B3010008B301000850
:1000C000B3010008B3010008B3010008B301000840
:1000D000B3010008B3010008B3010008DD07000800
:1000E000B3010008B3010008B301000800F002F8F2
:1000F00000F03FF80AA090E8000C82448344AAF183
:100100000107DA4501D100F034F8AFF2090EBAE880
:100110000F0013F0010F18BFFB1A43F0010318473B
:100120009C0E0000BC0E0000103A24BF78C878C1B5
:10013000FAD8520724BF30C830C144BF04680C60ED
:10014000704700000023002400250026103A28BF35
:1001500078C1FBD8520728BF30C148BF0B60704739
:10016000642900F09183002070471FB51FBD10B5B2
:1001700010BD00F04FFC1146FFF7F7FF00F02AF822
:1001800000F06DFC03B4FFF7F2FF03BC00F034FA9B
:1001900030BF72B662B680F30888704708480047DF
:1001A000FEE7FEE7FEE7FEE7FEE7FEE7FEE7FEE727
:1001B000FEE7FEE703480449044A054B7047000088
:1001C000ED00000870000020700600207002002082
:1001D0007002002008B5092000F0B5F9482000F0B1
:1001E00055F84FF41651482000F020FA4FF41651FC
:1001F000242000F081FA34E01A4801780078401C8D
:10020000184A1070642902DD012011460870164852
:10021000007808B9012000E0002013490870084662
:10022000007850B90F480078282300900D480278D4
:1002300001780EA000F0E8FA10E00A480078801E6D
:10024000009008480078A0F10A03064800784200B0
:10025000044801780A3109A000F0D6FA322000F0F3
:100260004DF8C9E701000020000000207B41256413
:100270003A25643A25643A25647D24007B4225644E
:100280003A25643A25643A25647D24004FF0E02144
:10029000096921F004014FF0E0221161C21700EB5F
:1002A0005272C2F3C702234B1A701946097801EB48
:1002B0004102C2EBC1114FF6FF7202EAC1011E4AB0
:1002C0001180704701461B4A12784A434FF0E023E1
:1002D0005A6100229A6101221A6100BF4FF0E022A8
:1002E000106900F001021AB100F48032002AF5D042
:1002F00000224FF0E0231A619A61704701460E4ACE
:1003000012884A434FF0E0235A6100229A61012289
:100310001A6100BF4FF0E022106900F001021AB12B
:1003200000F48032002AF5D000224FF0E0231A6159
:100330009A6170470200002004000020A34A0A408E
:100340000243A34B1A6070470146072323EA0102C8
:1003500012029F4B1B1D18684FF6FF0318409D4B60
:10036000184310439A4B1B1D186070472DE9F0414C
:100370000746884614461D462846FFF7E5FFC5F1A7
:10038000040007FA00F60F20284100EA080006439F
:1003900006F00F06E21704EBD2625211920002F14E
:1003A000E022D2F800212146E31704EBD3635B116E
:1003B000A4EB431C012303FA0CF31A432046E31772
:1003C00004EBD3635B119B0003F1E023C3F800212E
:1003D0008148005D40EA06107F490855BDE8F0817C
:1003E00070B504460B46CE1701EB9676C6F3870030
:1003F000CE1701EB9676B610A1EB8606B606350E43
:10040000764B9B6943F00103744EB3614FEAB633F8
:1004100053F820300F26AE40B343714E46F82030DB
:10042000334653F8203004FA05F61E436C4B43F86C
:1004300020606C4B1B6801268E403343694E33604D
:1004400002F0010343B1674B0C331B6801268E4059
:100450003343644E0C36336002F0020343B1614B08
:1004600008331E6801238B401E435E4B08331E6019
:1004700070BD00B5002059490861C860142048616A
:1004800000208861C8610846006840F001000860EB
:10049000084640685449084050494860084600688A
:1004A000524908404D4908600846006820F4802001
:1004B00008600846406820F4FE004860002088601C
:1004C00000214FF00060FFF739FF00BD10B5404834
:1004D0000830006840F004003D49083108603F489A
:1004E000C06940F080503D49C8614148406840F4CF
:1004F00080703F4948600846006840F0040008608A
:100500000846006840F002000860FFF741FE10BD99
:100510003048001D2E49091D0860704701464906F4
:100520002E4A926942F001022C4B9A612C4A083AF9
:10053000526822F0E0622A4B083B5A601A46526821
:100540000A435A60704730B504460025FFF791FF13
:100550002248006840F480302049086000BF1F48EE
:100560000068400C0028FAD04FF480601B494860B6
:10057000A01EC4B20846406840EA8440486008466D
:10058000406840F4803048601A48006840F032000B
:10059000184908601148006840F080700F490860F1
:1005A00000BF0E480068400E0028FAD00B48406893
:1005B00040F002000949486005E008484068C0F37F
:1005C000870505F00305022DF7D130BD80FFFF1F21
:1005D00008ED00E00000FA0500E400E00010024031
:1005E00008000140000401400000FFF8FFFFF6FE94
:1005F0000070004000200240014600BF704700BF6D
:10060000384A128802F04002002AF9D0C2B2354BB3
:100610001B1D1A8070473449088000BF3249091FEA
:10062000098801F040010029F8D070472DE9F05FFA
:1006300005460E46300100F061FB81462B4905FB63
:1006400001F000F05BFB8246494600F075FA074670
:10065000384600F033FB84B2204600F04FFB83465F
:10066000394600F02BFC82464FF0834100F05AFBE4
:10067000814600F023FB80464FF6FF7000EA041429
:1006800004EB080084B21A48806940F0040018495D
:1006900088610846806940F4804088611548006898
:1006A00020F47F60134908600846006840F40B603E
:1006B00008600F48C06840F480400D49C860084693
:1006C000C06820F48040C8600748001D0480001DF9
:1006D000008842F20C010843034908310880BDE854
:1006E000F09F0000004800400438014040420F00E5
:1006F00000100240040801402DE9F05F05460E4657
:10070000300100F0FBFA81463A4905FB01F000F0A8
:10071000F5FA8246494600F00FFA0746384600F0DF
:10072000CDFA84B2204600F0E9FA8346394600F05B
:10073000C5FB82464FF0834100F0F4FA814600F099
:10074000BDFA80464FF6FF7000EA041404EB08007F
:1007500084B22948806940F008002749886108462A
:10076000C06940F48020C8612448006820F47F40BC
:10077000224908600846006840F40B4008601F48A2
:100780000830006840F480601C49083108601A484D
:10079000006940F48020184908610846006920F487
:1007A0008020086116480480001D008842F20C0178
:1007B00008431349091D08800846008840F48070EA
:1007C00008800846008840F0200008800223272285
:1007D00001211846FFF7CAFDBDE8F09F0848083818
:1007E000008800F0200018B10549091F088800BFE3
:1007F0007047000040420F0000100240040C01400E
:1008000008480040704700000FB4044910B503AA1F
:10081000029800F0D1F810BC5DF814FB080000202D
:100820002DE9F0410E460446002020622046E16892
:10083000884730B3252805D0D4E901219047206AA4
:10084000401CF2E7E168204600278847050018D0E1
:10085000A5F14100192802D820354FF4006732462F
:10086000294620462760FFF77BFC40B1012804D0D1
:10087000F61D26F007060836D8E7361DD6E72846C7
:10088000DAE7206ABDE8F0812DE9F0410646002450
:1008900010687529314615A510D0AFF300800028E7
:1008A00002DA404212A507E031688A0701D511A596
:1008B00002E0490704D510A5012401E0AFF3008050
:1008C00000210A2306F1240707E0B0FBF3F203FB43
:1008D0001200303078541046491C0028F5D12346C8
:1008E0002A463046BDE8F04100F00CB80000000098
:1008F0002D0000002B000000200000007047704712
:10090000704770472DE9F0470D46994692460446D8
:1009100000F124080168880604D5E06921F010017F
:10092000216000E00120A84201DD471B00E0002714
:10093000A1697A1902EB0900081AA0612078C006A3
:1009400002D42046AFF30080002608E0D4E901215C
:100950001AF806009047206A401C761C20624E451B
:10096000F4DB2078C0060AD52046AFF3008006E00D
:10097000D4E9012130209047206A401C2062381EB3
:10098000A7F10107F4DC07E0D4E9012118F805001C
:100990009047206A401C2062281EA5F10105F3DC67
:1009A0002046AFF300802078000602D50220BDE883
:1009B000F0870120FBE70000074B70B50D467B4434
:1009C00000F011F80446284600F020F810B14FF06E
:1009D000FF3070BD204670BD3DFCFFFF01694A1C21
:1009E00002610878704700B58FB0CDE90131002170
:1009F000059105497944CDE9031011466846FFF792
:100A00000FFF0FB000BD0000E5FFFFFF007B00F00F
:100A100080007047754600F029F8AE46050069462B
:100A2000534620F00700854618B020B5FFF7C2FBFB
:100A3000BDE820404FF000064FF000074FF00008DF
:100A40004FF0000B21F00701AC46ACE8C009ACE860
:100A5000C009ACE8C009ACE8C0098D46704704463F
:100A6000AFF300802046FFF78DFB00000048704781
:100A70000C00002090EA010F48BF81F0004100F116
:100A80002E82421A3CBF801A89184FEAD0524FF08A
:100A90007F4C1CEA410FA2EBD15318BF9CEA026FB6
:100AA00000F03B804FF0004C4CEA00204CEA012162
:100AB00021FA03FC10EB0C0C1ED202F1FF325FEAAC
:100AC0001C2040EBC25038BF70471CF07F0F4FEA2C
:100AD000400C18BFBCF17F4F38BF7047C3F12003F3
:100AE000994008BF20F00100BCF17F4F38BF70472C
:100AF000A0F1C04000F0DDB94FEA3C00000A40EB35
:100B0000C25028BF1CF0FF0F4FEA400CE6D018BFC0
:100B1000BCF17F4F38BF7047EAE79CEA026F05D00F
:100B200010EA5C0F08BF00F00040704710B500F0FD
:100B30007AF900BF64FBBE3E4FF47F0C1CEAD01272
:100B40001EBF1CEAD11392EA0C0F93EA0C0F00F0BF
:100B5000858090EA010F48BF42F4807240F4000C97
:100B600041F400002CF07F4120F07F4000B581422D
:100B7000A2EB03020FF2081CACEB504EC0F10000D8
:100B80009EF800E04FEA4E0E00FB0EFC38BF490015
:100B90004FEA2C1C02F5FA020CFB0EF34FEACE1EB4
:100BA0004FEA112C4FEAC1210EEB635E42EB224269
:100BB0000EFB0CFC4FEA1C5300FB03114FEA112CF7
:100BC0004FEA01310EFB0CFC4FEADC4C00FB0C1130
:100BD000C14228BF09184CEB03335DF804EB10EB5E
:100BE000410143EBC250B2F57C0F38BF704729D5A5
:100BF00012F0F00F1CBF00F1C04000F00040704741
:100C0000008182838485868788898B8C8D8E8F91E5
:100C10009293959697999A9C9D9FA0A2A3A5A7A809
:100C2000AAACAEB0B2B3B5B7B9BCBEC0C2C5C7C935
:100C3000CCCED1D4D7D9DCDFE2E6E9ECF0F3F7FA99
:100C4000FE0000004FEA400C0CF1807CBCF17E4FAE
:100C500028BF7047B0F1C04000F02BB990EA010FF7
:100C60000CEAD11348BF42F48072624538BF634535
:100C700007D213F47F0F16D080EA010000F0004085
:100C8000704710B500F0CFF8097EFC3E00F005B8C3
:100C900080EA010000F00040704780EA010000F0A7
:100CA000004000F006B912F47F0F04BF02487047FD
:100CB00080EA010000F0FDB80000C07FC10DD1F155
:100CC0009E0206DB4FEA002343F0004323FA02F0C2
:100CD0007047004207D54FEA4001B1F1FE4F02D202
:100CE0004FF00000704710B500F09DF84992248045
:100CF000002070476FEA200070470000B0FA80F3D0
:100D000010FA03F2C3F19D030AD0D90501EB1220BA
:100D1000530638BF704700F1010008BF20F0010002
:100D2000704700004FF47F0C1CEAD0121EBF1CEA73
:100D3000D11392EA0C0F93EA0C0F00F0478090EA6F
:100D4000010F48BF42F480724FF0004C4CEA002083
:100D50004CEA012102EB0302A0FB0113A2F5000201
:100D6000002918BF43F001035B0028BF4FEA33039B
:100D700042EB22425FEA132C4CEBC2502EBFBCEB7D
:100D8000436FB2F57C0F70474FEA036CBCF1004F24
:100D900008BF20F00100B2F57C0F38BF70470BD5BB
:100DA00082F0FF0212F5803FC8BF704700F1C040DB
:100DB000D8BF00F00040704700F5000C5FEA4C0C13
:100DC00048BF7047B0F1C04000F073B890EA010F1F
:100DD0000CEAD11348BF42F48072624538BF6345C4
:100DE00004D280EA010000F00040704710B500F026
:100DF0001AF800BF8900013E00F007B800F009B8FA
:100E00005FEA410C5FEA1C6C08D080EA010000F048
:100E100050B85FEA400C5FEA1C6CF6D14FF000401E
:100E2000A0F5800070470EF1020E2EF0030E5EF862
:100E3000044B244204D44FEA4102B2F17F4F11D84F
:100E40004FEA4003B3F17F4F0CD80ED14FEAD07C6C
:100E5000B2F17F4F0CEB4C0C0CF1020C08BF4CEBC9
:100E6000D17C04E04FF0080C01E04FEAD17C0CEBA0
:100E70004C0324FA03F404F00704B4F1040C06D282
:100E80000EEB840CBDE810404CF0010C6047DFE82D
:100E90000CF0070802024FF00040A0F5800010BDE2
:100EA0000846420018BFD2F1807288BF00F00040AF
:100EB00010BDFF2141EAD050C005704780F00040CE
:100EC00090EA010F7FF5DDAD81F0004100F007B839
:100ED00090EA010F48BF81F000413FF5D2AD421AC0
:100EE00004D882F00042A0EB020011444FEAD05235
:100EF0004FF07F4C1CEA410FA2EBD15318BF9CEA84
:100F0000026F4AD04FF0004C4CEA00204CEA01211D
:100F100021FA03FCB0EB0C0C0FD412F0FE0F36D00C
:100F20005FEA4C001DD5001240EBC25038BF70473D
:100F30001CF03F0F18BF70470BE0A2F101025FEAFF
:100F40001C2040EBC25038BF70471CF07F0F18BF09
:100F50007047C3F12003994014BF401E20F00100E8
:100F6000704780084FEA122308BF7047B0FA80FC30
:100F7000A2EB0C02CCF1280C60FA0CF093EA122FD1
:100F800004BF00EBC25070474FEAC3707047130AAA
:100F90005FEADC1008BF7047F6E79CEA026F04D0F6
:100FA00010EA5C0F08BF0020704710B5FFF73BFF49
:100FB00040DFF63E81F0004070470000DC0F000883
:100FC000000000200C00000028010008E80F0008C5
:100FD0000C0000206406000044010008000000002E
:080FE000000000000000000009
:04000005080000ED02
:00000001FF
