:020000040800F2
:10000000480D002075040008DD010008DF0100082C
:10001000E3010008E7010008EB0100080000000010
:10002000000000000000000000000000EF010008D8
:10003000F101000800000000F3010008F5010008CC
:100040008F0400088F0400088F0400088F04000844
:100050008F0400088F0400088F0400088F04000834
:100060008F0400088F0400088F0400088F04000824
:100070008F0400088F0400088F0400088F04000814
:100080008F0400088F0400088F0400088F04000804
:100090008F0400088F0400088F0400081F48000820
:1000A0008F0400088F0400088F0400088F040008E4
:1000B000AD35000869320008953500088F04000846
:1000C0008F0400088F0400088F0400088F040008C4
:1000D0008F0400088F0400088F0400089B3B000871
:1000E0008F0400088F0400088F04000800F002F855
:1000F00000F05FF80AA090E8000C82448344AAF163
:100100000107DA4501D100F054F8AFF2090EBAE860
:100110000F0013F0010F18BFFB1A43F0010318473B
:10012000C0C90000E0C900000A444FF0000C10F8FC
:10013000013B13F0070408BF10F8014B1D1108BF65
:1001400010F8015B641E05D010F8016B641E01F805
:10015000016BF9D113F0080F1EBF10F8014BAD1C55
:100160000C1B09D16D1E58BF01F801CBFAD505E073
:1001700014F8016B01F8016B6D1EF9D59142D6D3CD
:10018000704700000023002400250026103A28BFF5
:1001900078C1FBD8520728BF30C148BF0B607047F9
:1001A000642908F0AF83002070471FB51FBD10B54C
:1001B00010BD08F077FD1146FFF7F7FF00F00CF9CE
:1001C00008F095FD03B4FFF7F2FF03BC02F0B8FBA3
:1001D00030BF72B662B680F308887047704700BFC0
:1001E000FEE700BFFEE700BFFEE700BFFEE7704787
:1001F00070477047704700000CB5002001900090D8
:100200006C48006840F480306A49086000BF694863
:10021000006800F4003000900198401C01900098A4
:1002200018B90198B0F5A06FF1D16248006800F4E8
:10023000003010B10120009001E0002000900098F3
:10024000012843D15C48006840F010005A4908601A
:100250000846006820F0030008600846006840F087
:1002600002000860534840685249486008464068A8
:1002700048600846406840F480604860084640682E
:1002800020F47C1048600846406840F4E81048605C
:100290000846006840F08070086000BF454800686C
:1002A00000F000700028F9D04248406820F00300B8
:1002B000404948600846406840F00200486000BF7E
:1002C0003C48406800F00C000828F9D10CBD10B57E
:1002D000FFF792FF10BD10B53648006840F00100EE
:1002E000344908600846406834490840314948604C
:1002F00008460068324908402E49086008460068F0
:1003000020F4802008600846406820F4FE00486021
:100310004FF41F008860FFF7DAFF4FF000602949B3
:10032000086010BD10B5002100200022214B5B6841
:1003300003F00C0121B1042906D0082928D107E0D7
:10034000214B224C236027E01F4B204C236023E0ED
:10035000184B5B6803F47010164B5B6803F4803233
:10036000022303EB904022B9194B4343174C2360FF
:100370000DE0104B5B6803F4003323B1144B43438F
:10038000124C236003E0104B4343104C236003E006
:100390000D4B0E4C236000BF00BF064B5B68C3F3E0
:1003A00003130C4CE15C094B1B68CB40074C2360EA
:1003B00010BD000000100240002002400000FFF8C5
:1003C000FFFFF6FE08ED00E000127A0000000020BA
:1003D00000093D000400002002F0EAF84FF4FA3072
:1003E00002F0CCFA022002F03DFA012002F03AFAC3
:1003F00002F00AFB02F03AFB022002F049F9002168
:1004000041F61F4002F0B2FF4FF4165003F076FBA6
:1004100003F004F803F04FF802F006FE03F0DAF8F8
:1004200007F00BFB07F01DFB02F04BFD47214FF6D9
:10043000FF7002F093FE03F08FFD14E00A4800788D
:1004400020B907F06AFE07F051FD01E007F001FF57
:1004500001200649087000200549087000BF0348C4
:1004600000780028FBD1E9E71B00002049000020AC
:10047000480000200948804709480047FEE7FEE79A
:10048000FEE7FEE7FEE7FEE7FEE7FEE7FEE7FEE744
:1004900004480549054A064B70470000D70200088A
:1004A000ED00000848070020480D00204809002002
:1004B0004809002031490143314A1160704770B545
:1004C000002100230F22C47804B32D4C246804F4C7
:1004D000E064C4F5E064210AC1F10403CA40447831
:1004E00004FA03F18478144021430901254C06786D
:1004F000A155047804F01F050124AC4005786D1166
:10050000AD0005F1E025C5F8004109E0047804F0EC
:100510001F050124AC401C4D0678761145F8264095
:1005200070BD1A4A0A400243154B1B1F1A607047E0
:1005300039B1134A121D12680243114B1B1D1A6078
:1005400006E00F4A121D126882430D4B1B1D1A60F4
:100550007047042808D14FF0E021096941F00401F7
:100560004FF0E022116107E04FF0E021096921F02E
:1005700004014FF0E0221161704700000000FA050D
:100580000CED00E000E400E080E100E080FFFF1FF0
:1005900010B50446FA48844208D10121401500F004
:1005A000ABFE0021601500F0A7FE17E0F54884427D
:1005B00008D10121001500F09FFE0021201500F058
:1005C0009BFE0BE0F048844208D10121C80300F0F3
:1005D00093FE00214FF4004000F08EFE10BD30B5B8
:1005E0000246002000235068E84C20400D790C683A
:1005F00044EA0524204350609068E54C2040D1E94E
:1006000002542C434D7944EA450420439060D06A5B
:1006100020F470000C7C641EE4B2234340EA0350D3
:10062000D06230BD00210160017141718160C16003
:1006300001210174704721B1826842F00102826099
:1006400003E0826822F001028260704721B1826873
:1006500042F48072826003E0826822F480728260D9
:10066000704710B50023CBB21AB144681C434460F4
:1006700002E044689C43446010BD816841F0080179
:1006800081607047014600208A6802F008020AB1C2
:10069000012000E000207047816841F00401816082
:1006A0007047014600208A6802F004020AB1012066
:1006B00000E00020704721B1826842F4A00282600D
:1006C00003E0826822F4A0028260704701460020A5
:1006D0008A6802F480020AB1012000E0002070471D
:1006E00010B50A4600210023416821F46041531EE1
:1006F00041EA4331416010BD21B1426842F40062D9
:10070000426003E0426822F4006242607047F0B544
:1007100004460D4600200021092D11DDE068A5F1F9
:100720000A0606EB4607072606FA07F18843A5F1F5
:100730000A0606EB460603FA06F10843E0600CE001
:10074000206905EB4507072606FA07F1884305EB04
:10075000450603FA06F108432061072A0FDA606BA9
:10076000561E06EB86071F2606FA07F18843561E1B
:1007700006EB860605FA06F10843606322E00D2ABF
:100780000FDA206BD61F06EB86071F2606FA07F145
:100790008843D61F06EB860605FA06F10843206358
:1007A00010E0E06AA2F10D0606EB86071F2606FAA6
:1007B00007F18843A2F10D0606EB860605FA06F15D
:1007C0000843E062F0BD21B1826842F48012826089
:1007D00003E0826822F48012826070470146C86C90
:1007E00080B2704766484C300068704721B142685B
:1007F00042F48062426003E0426822F48062426018
:10080000704721B1426842F48052426003E042687E
:1008100022F48052426070470A460021816821F428
:10082000E04111438160704721B1826842F4004287
:10083000826003E0826822F400428260704721B146
:10084000826842F40212826003E0826822F402129B
:1008500082607047014600208A6802F400120AB1E3
:10086000012000E000207047F0B504461546002046
:1008700000220026092911DDE068A1F10A0707EB33
:10088000470C072707FA0CF29043A1F10A0707EB80
:10089000470703FA07F21043E0600CE0206901EB20
:1008A000410C072707FA0CF2904301EB410703FACA
:1008B00007F210432061A06BC0F30156EF1C06F154
:1008C000010CA7EB0C0707EB870C1F2707FA0CF2AC
:1008D0009043EF1C06F1010CA7EB0C0707EB870711
:1008E00001FA07F21043A063F0BD10B50A460021DB
:1008F0000023816B21F44011531E41EA03518163AF
:1009000010BD08B5002300930090009B0B4400939A
:10091000009B1A6008BD08B50246002000900092B6
:1009200001F12800009B184400900098006880B2F4
:1009300008BD0A4600214168164B19401143416029
:1009400070474162826270470A460021416821F087
:100950001F0111434160704740B1094908310968DE
:1009600041F40001064A0832116007E004490831E9
:10097000096821F40001024A083211607047000042
:100980000024014000280140003C0140FFFEF0FF30
:10099000FDF7F1FFFFFD3FFF0246002013680B400B
:1009A0000BB1012000E000207047CA43026070478D
:1009B00070B502460020002300240B125568CEB209
:1009C00005EA060415681D4015B10CB1012000E0D0
:1009D000002070BD00220A12D3430360704700005C
:1009E00010B5012000F0A2FC002000F09FFC10BD1B
:1009F0002A49086070472949091F0860704727493C
:100A000084310860704701460020254A10884FF65F
:100A10007F4210400843224A108070470146002060
:100A20001F4A10884FF68072104008431C4A1080FD
:100A3000704708B500220092194A2C3A0092009A99
:100A400002440092009A116008BD08B501460020DA
:100A5000009013482C3800900098084400900098AB
:100A6000008808BD0D489C300068C0B270470C4833
:100A70000830008840F001000949083108807047BB
:100A80000648A0300068C0B27047054808300088AA
:100A900040F00200024908310880704704860D4288
:100AA0002C6C0040002044490860091D0860091DA5
:100AB0000860091D086041483F49143108607047CB
:100AC00000213D498279002A3AD00A46126803681B
:100AD0009A430B461A600A1D126803689A430B1D5D
:100AE0001A60027911440A6803681A430A60324A9C
:100AF0000832126803689A432F4B08331A601A1D94
:100B0000126803689A432C4B0C331A604279102AFE
:100B10000ED11A1F126803681A43274B08331A6054
:100B20001A1D126803681A43234B0C331A600DE038
:100B30002149427911440A6803681A430A6005E0B2
:100B4000027911440A6803689A430A6070470021D9
:100B5000016001710C2141710021817170471649BA
:100B6000103109680143144A103211607047014680
:100B70000020114A143212680A400AB1012000E034
:100B8000002070470C49143108607047014600206E
:100B90000022094B1B6803EA0102074B14331B6850
:100BA0000B4013B10AB1012000E000207047024958
:100BB000143108607047000000040140FFFF0F007F
:100BC00010B50446CC48844208D10121042000F02D
:100BD00093FB0021042000F08FFB46E0C7488442CD
:100BE00008D10121082000F087FB0021082000F037
:100BF00083FB3AE0C248844208D10121102000F072
:100C00007BFB0021102000F077FB2EE0BD488442E2
:100C100008D10121202000F06FFB0021202000F0EE
:100C20006BFB22E0B848844208D10121402000F04B
:100C300063FB0021402000F05FFB16E0B3488442D4
:100C400008D10121802000F057FB0021802000F016
:100C500053FB0AE0AE48844207D10121801500F021
:100C60004BFB0021A01500F047FB10BD10B5012182
:100C7000084600F041FB0021012000F03DFB10BDC3
:100C80002DE9F04102460025002600200023002423
:100C9000002791F803C00CF00F0591F803C00CF089
:100CA000100CBCF1000F03D091F802C04CEA05050E
:100CB00091F800C0BCF1000F31D0146800202BE087
:100CC0004FF0010C0CFA00F3B1F800C00CEA030677
:100CD0009E4220D183004FF00F0C0CFA03F7BC4367
:100CE00005FA03FC4CEA040491F803C0BCF1280F98
:100CF00006D14FF0010C0CFA00FCC2F814C00AE057
:100D000091F803C0BCF1480F05D14FF0010C0CFA6B
:100D100000FCC2F810C0401C0828D1D31460B1F800
:100D200000C0BCF1FF0F34DD546800202EE000F15C
:100D3000080C4FF0010808FA0CF3B1F800C00CEAF7
:100D400003069E4221D183004FF00F0C0CFA03F7EB
:100D5000BC4305FA03FC4CEA040491F803C0BCF15F
:100D6000280F05D100F1080C08FA0CF8C2F814801D
:100D700091F803C0BCF1480F07D100F1080C4FF007
:100D8000010808FA0CF8C2F81080401C0828CED3DD
:100D90005460BDE8F0814FF6FF710180022181703F
:100DA0000421C17070470246002093680B400BB1CC
:100DB000012000E0002070470146886880B270473B
:100DC00002460020D3680B400BB1012000E0002058
:100DD00070470146C86880B2704701617047416141
:100DE00070470AB1016100E041617047C16070471E
:100DF0004FF480320A438261816182618269826933
:100E0000704702460020434B18684FF68073184025
:100E100040EA021008433F4B186070473E49C861E2
:100E20007047F0B50A46002300240021002500F099
:100E30000046B6F1004F02D1364EF16901E0354E61
:100E40007168C0F3034583B200F44016B6F5401F45
:100E500008D121F070612F4E766826F070662D4F14
:100E60007E6012E000F48016B6F5801F06D10326DE
:100E700006FA05F4A14341F0706106E0460D360123
:100E800003FA06F6B14341F0706122B1460D360116
:100E900003FA06F6314300F00046B6F1004F02D1E6
:100EA0001C4EF16101E01B4E7160F0BD30B50022B7
:100EB0008B071C0F0F2303FA04F2164B08338C1018
:100EC00053F824309343134C08348D1044F82530E4
:100ED00023468C1053F824308C07240F00FA04F4B6
:100EE00023430C4C08348D1044F8253030BD0A499A
:100EF000DC3108607047000000080140000C014030
:100F0000001001400014014000180140001C014085
:100F100000200140000001400000204210B50121E6
:100F2000080700F0F6F900214FF0805000F0F1F9C9
:100F300010BD2A4908627047284908617047014678
:100F40000020274A106820F0E00008431060704736
:100F50002249A0310860704710B502460020204B9E
:100F6000186820F00300104318601E4B1B6843F004
:100F700004031C4C2360012901D130BF00E020BFD5
:100F8000184B1B6823F00403164C236010BD144853
:100F9000006840F00400124908600846006840F00C
:100FA000020008600F48006840F004000D49086026
:100FB00000BF00BF30BF704701460020084A52689A
:100FC0000A400AB1012000E0002070470449096886
:100FD00041EA8001024A11607047000000000E42A1
:100FE0000070004010ED00E0DF48006840F00100B4
:100FF000DD49086008464068DC490840DA49486035
:1010000008460068DA490840D74908600846006881
:1010100020F4802008600846406820F4FE00486004
:101020004FF41F0088607047CF49096821F4803170
:10103000CD4A11601146096821F480211160B0F594
:10104000803F03D0B0F5802F0ED106E0C649096875
:1010500041F48031C44A116007E0C349096841F492
:10106000A021C14A116000E000BF00BF704710B569
:1010700001460022002300204A11012A02D1BA4C65
:10108000236806E0022A02D1B74C236A01E0B64C7D
:10109000636A01F01F02012494401C400CB101203E
:1010A00000E0002010BD38B500200090002400258D
:1010B00000BF3120FFF7DBFF05460098401C009081
:1010C0000098B0F5A06F01D0002DF2D03120FFF7CD
:1010D000CEFF08B1012400E00024204638BD0146BF
:1010E0000020A14A106820F0F80040EAC10010601A
:1010F0007047A04908607047024600209A4B586824
:1011000020F47C1042EA01031843974B5860704763
:1011100098490866704701460020934A506820F0BD
:1011200003000843506070478F48406800F00C008F
:101130007047014600208C4A506820F0F0000843B8
:101140005060704701460020874A506820F4E060F4
:1011500008435060704701460020834A506820F4DD
:10116000605040EAC1005060704729B17E4A527A0F
:1011700002437D4B5A7204E07B4A527A82437A4B97
:101180005A7270477B49D831086070470146002089
:10119000754A506820F44040084350607047002171
:1011A000714A20321170704A82F82010012802D052
:1011B00004280AD104E001216B4A2032117005E0B5
:1011C0000521694A2032117000E000BF00BF70475E
:1011D0006949086070476449096A0143624A1162BB
:1011E0007047654944390860704730B500210022D6
:1011F000002400235C4D6D6805F00C0121B1042929
:1012000005D0082923D105E05C4D056022E05B4D47
:1012100005601FE0544D6D6805F47012524D6D6805
:1012200005F48034022505EB92421CB9544D554318
:1012300005600BE04C4D6D6805F400351DB1504D57
:101240005543056002E04D4D5543056002E04B4DAE
:10125000056000BF00BF444D6D6805F0F00109094D
:10126000484D6B5C0568DD4045603F4D6D6805F499
:10127000E061090A434D6B5C4568DD4085603A4D8D
:101280006D6805F46051C90A3E4D6B5C4568DD40F0
:10129000C560354D6D6805F44041890B3A4D6B5C76
:1012A000C568B5FBF3F5056130BD29B12E4A526919
:1012B00002432D4B5A6104E02B4A526982432A4B68
:1012C0005A61704729B1284A92690243264B9A61B4
:1012D00004E0254A92698243234B9A61704729B101
:1012E000214AD2690243204BDA6104E01E4AD269E6
:1012F00082431D4BDA61704729B11B4AD268024311
:10130000194BDA6004E0184AD2688243164BDA605F
:10131000704729B1144A12690243134B1A6104E061
:10132000114A12698243104B1A61704712494039C1
:10133000086070470F49C86470470B49C87170470F
:101340000948406A40F0807007494862704701468A
:101350000020054A92680A400AB1012000E00020FE
:101360007047014988727047001002400000FFF882
:10137000FFFFF6FE000042428004424200127A0063
:1013800000093D00640000207400002010B50446F0
:10139000FE48844208D10121C014FFF7ADFF0021AF
:1013A000E014FFF7A9FFC4E0B4F1804F08D1012198
:1013B0000846FFF7AEFF00210120FFF7AAFFB8E0C3
:1013C000F348844208D101210220FFF7A2FF002147
:1013D0000220FFF79EFFACE0EE48844208D10121D5
:1013E0000420FFF796FF00210420FFF792FFA0E002
:1013F000E948844208D101210820FFF78AFF002133
:101400000820FFF786FF94E0E448844208D10121D8
:101410001020FFF77EFF00211020FFF77AFF88E001
:10142000DF48844208D101212020FFF772FF00210C
:101430002020FFF76EFF7CE0DA48844208D10121CA
:101440004014FFF759FF00216014FFF755FF70E0CB
:10145000D548844209D10121C804FFF74DFF00217E
:101460004FF40020FFF748FF63E0D048844209D1E1
:1014700001210805FFF740FF00214FF48010FFF71E
:101480003BFF56E0CA48844209D101214805FFF7D5
:1014900033FF00214FF40010FFF72EFF49E0C5484D
:1014A000844208D101214020FFF733FF0021402072
:1014B000FFF72FFF3DE0C048844208D10121802082
:1014C000FFF727FF00218020FFF723FF31E0BB4813
:1014D000844208D101218015FFF71BFF0021A015D0
:1014E000FFF717FF25E0B648844209D1012108041F
:1014F000FFF702FF00214FF48030FFF7FDFE18E0F8
:10150000B048844209D101214804FFF7F5FE0021CB
:101510004FF40030FFF7F0FE0BE0AB48844208D1F7
:1015200001218804FFF7E8FE00214FF48020FFF737
:10153000E3FE10BD00220288944B98420ED0994BD6
:1015400098420BD0B0F1804F08D0914B984205D013
:10155000904B984202D0904B984204D14FF68F7333
:101560001A404B881A438D4B984207D08C4B9842B7
:1015700004D04FF6FF431A40CB881A4302808B8871
:1015800083850B880385814B98420BD0854B98420D
:1015900008D08B4B984205D08A4B984202D08A4B98
:1015A000984201D10B7A038601238382704770B57C
:1015B000002400220023058C4FF6FE76354005847A
:1015C000028C8388048B4FF68F752C40B51E2C40FF
:1015D0000D882C43751E2A400D892A434D882A43C5
:1015E0006A4DA8420BD06F4DA84208D0744DA84256
:1015F00005D0744DA84202D0734DA84213D14FF6C6
:10160000F7752A404D892A434FF6FB752A408D888D
:101610002A434FF6FF652B404FF6FF552B408D892F
:101620002B43CD892B4383800483CD888586028418
:1016300070BD70B5002400220023058C4FF6EF76B4
:1016400035400584028C8388048B48F6FF752C4056
:101650004FF6FF452C400D884FF6FF7606EA05252C
:101660002C434FF6DF752A400D8906EA05152A43FB
:101670004D8806EA05152A43444DA84202D0494D3B
:10168000A8421DD14FF67F752A404D894FF6FF764F
:1016900006EA05152A434FF6BF752A408D8806EAEB
:1016A00005152A434FF6FF352B404FF2FF752B40AF
:1016B0008D8906EA85052B43CD8906EA85052B43EE
:1016C00083800483CD880587028470BD70B50024B3
:1016D00000220023058C4FF6FF6635400584028CFE
:1016E0008388848B4FF68F752C404FF6FC752C4009
:1016F0000D882C434FF6FF552A400D894FF6FF7693
:1017000006EA05252A434D8806EA05252A431F4D8A
:10171000A84202D0234DA8421DD14FF2FF752A40A6
:101720004D894FF6FF7606EA05252A434FF6FF3529
:101730002A408D8806EA05252A434EF6FF752B4080
:101740004DF6FF752B408D8906EA05152B43CD8993
:1017500006EA05152B4383808483CD888587028420
:1017600070BD70B5002200230024058C4EF6FF7674
:1017700035400584038C8488828B48F6FF752A40A7
:101780004FF6FF452A400D8820E00000002C014064
:101790000004004000080040000C00400010004021
:1017A0000014004000340140004C01400050014052
:1017B0000054014000180040001C00400020004080
:1017C0000040014000440140004801404FF6FF76D0
:1017D00006EA05252A434DF6FF752B400D8906EADA
:1017E00005352B434D8806EA05352B43FA4DA842B3
:1017F00002D0FA4DA84208D14BF6FF752C408D89D6
:101800004FF6FF7606EA85152C4384808283CD88C7
:10181000A0F84050038470BD828B4FF2FF331A4012
:101820008283828B4FF6FF7303EA01231A4382837C
:101830007047F0B50C461546002200210026078CA3
:101840004EF6FF7C07EA0C070784828B018C4FF66B
:10185000FF7707EA043640F6FF473A404FF6FF7736
:1018600007EA05273A434FF6FF7707EA03373A437B
:10187000D94FB8420ED0D94FB8420BD0B0F1804FFB
:1018800008D0D74FB84205D0D64FB84202D0D64F75
:10189000B84206D14DF6FF77394046F480573943B8
:1018A00005E047F6FF57394044F4805739438283B7
:1018B0000184F0BD828B4FF6F3731A408283828BD2
:1018C0000A4382837047F0B50C461546002200217A
:1018D0000026078C4FF6FF6C07EA0C070784828B03
:1018E000018C4FF6FF7707EA04264FF60C773A4053
:1018F0004FF6FF7707EA03172F433A43B64FB84234
:101900000ED0B64FB8420BD0B0F1804F08D0B44FD4
:10191000B84205D0B34FB84202D0B34FB84206D157
:101920004FF6FF57394046F48077394305E04FF2D0
:10193000FF57394044F48077394382830184F0BDF6
:10194000028B4FF2FF331A400283028B4FF6FF7374
:1019500003EA01231A4302837047F0B50C4615468B
:10196000002200210026078C4FF6EF7C07EA0C07C7
:101970000784028B018C4FF6FF7707EA041640F6C6
:10198000FF473A404FF6FF7707EA03373A434FF6EF
:10199000FF7707EA05273A438F4FB8420ED08F4FA3
:1019A000B8420BD0B0F1804F08D08D4FB84205D06F
:1019B0008C4FB84202D08C4FB84206D14FF6DF7739
:1019C000394046F01007394305E04FF65F7739405C
:1019D00044F01007394302830184F0BD028B4FF6B7
:1019E000F3731A400283028B0A4302837047F0B5F7
:1019F0000C46154600220021068C4FF6FE773E402D
:101A00000684028B018C4FF60C7632407E1C06EA6F
:101A100003162E433243704EB0420ED06F4EB0428A
:101A20000BD0B0F1804F08D06D4EB04205D06D4E56
:101A3000B04202D06C4EB04206D14FF6FD76314036
:101A400044F00106314305E04FF6F576314044F0AD
:101A50000106314302830184F0BD70B505460C4692
:101A60005D4885420ED05D4885420BD0B5F1804F70
:101A700008D05B48854205D05A48854202D05A4872
:101A8000854200D100E000BF208850B92389A28898
:101A900061882846FFF7ABFFE1882846FFF79EFFE5
:101AA00025E0208804280AD12389A2886188284655
:101AB000FFF753FFE1882846FFF742FF17E0208831
:101AC00008280AD12389A28861882846FFF7FBFEEF
:101AD000E1882846FFF7EEFE09E02389A2886188A5
:101AE0002846FFF7A6FEE1882846FFF795FE70BD61
:101AF0002DE9F04105460C4600260127608808B90B
:101B0000022600E00026A088012801D1022700E07B
:101B100001272088A0B92389A28861882846FFF779
:101B200066FFE1882846FFF759FF23893A46314688
:101B30002846FFF712FFE1882846FFF701FF13E070
:101B40002389A28861882846FFF707FFE188284695
:101B5000FFF7F6FE23893A4631462846FFF747FF4E
:101B6000E1882846FFF73AFFBDE8F0810A884B88F4
:101B70001A438B881A43CB881A430B891A434B8923
:101B80001A438B891A43A0F8442070474FF6FF711F
:101B9000818000210180C180418001727047002155
:101BA000018041808180C180018141818181C18129
:101BB0007047002101804180012181800021C18086
:101BC000018170470021018041808180C1800181B5
:101BD0004181818170470000002C014000340140A8
:101BE0000004004000080040000C004021B10288C1
:101BF00042F00102028004E002884FF6FE731A40B0
:101C00000280704731B1B0F8442042F40042A0F89D
:101C1000442005E0B0F84420C2F30E02A0F84420AE
:101C200070471AB183890B43838102E083898B4318
:101C3000838170478182704741EA0203A0F84830EF
:101C400070471AB183890B43838102E083898B43F8
:101C50008381704701894FF6F87211400181704706
:101C60000A46002101894FF68F7319401143018103
:101C7000704730B504460D4629462046FFF7F0FF71
:101C8000208940F00700208130BD2DE9F041044655
:101C90000D4616461F46602D06D13B4601223146B1
:101CA0002046FFF75AFE05E03B460122314620461A
:101CB000FFF79DFE29462046FFF7D2FF208940F01E
:101CC00007002081BDE8F08130B50C460021018974
:101CD000C9B24FF6FF7505EA03251543254329438D
:101CE000018130BD2DE9F04105460E461746984664
:101CF000002443463A4631462846FFF7E5FF2C8943
:101D00004FF6F870044044F007044FF68F7004401B
:101D100044F070042C81BDE8F081F0B504460D4616
:101D200016461F463B46324629462046FFF7CCFF63
:101D3000208940F480402081F0BD01858282704777
:101D40000A46002101884FF68F7319401143018024
:101D50007047F0B50C4615461E46002100220023B0
:101D60000189028B038C4FF6F877394021434FF6F7
:101D7000FC473A4040F201173A434FF6DD773B40CB
:101D80004FF6FF7707EA06172F433B430181028393
:101D90000384F0BD0A460021018B4FF68F73194072
:101DA0001143018370470A460021018B48F6FF73F7
:101DB00019404FF6FF7303EA02231943018370476A
:101DC0000A460021818B4FF68F731940114381839E
:101DD00070470A460021818B48F6FF7319404FF681
:101DE000FF7303EA022319438183704721B10288FC
:101DF00042F08002028004E002884FF67F731A40AE
:101E00000280704721B1828842F00402828004E09F
:101E100082884FF6FB731A408280704721B1828816
:101E200042F00802828004E082884FF6F7731A407D
:101E30008280704721B1828842F00102828004E0F2
:101E400082884FF6FE731A40828070470A4600214E
:101E5000018B4FF6F77319401143018370470A460F
:101E60000021018B4FF2FF7319404FF6FF7303EA15
:101E700002231943018370470A460021818B4FF6E4
:101E8000F77319401143818370470A460021818B03
:101E90004FF2FF7319404FF6FF7303EA0223194311
:101EA000818370470A460021018B4FF6FB7319406E
:101EB0001143018370470A460021018B4FF6FF331F
:101EC00019404FF6FF7303EA022319430183704759
:101ED0000A460021818B4FF6FB7319401143818321
:101EE00070470A460021818B4FF6FF3319404FF6A9
:101EF000FF7303EA02231943818370470A460021D6
:101F0000018B4FF67F7319401143018370470A46D6
:101F10000021018BC1F30E014FF6FF7303EA022388
:101F20001943018370470A460021818B4FF67F7366
:101F300019401143818370470A460021818BC1F308
:101F40000E014FF6FF7303EA0223194381837047A2
:101F50000A460021018C4FF6FD731940114301849C
:101F600070470A460021018C4FF6F7731940114360
:101F7000018470470A460021018C4FF6DF73194037
:101F80004FF6FF7303EA02131943018470470A46B0
:101F90000021018C4FF67F7319404FF6FF7303EA5F
:101FA00002131943018470470A460021018C4FF641
:101FB000FF5319404FF6FF7303EA022319430184CC
:101FC00070470A460021018C4FF2FF7319404FF60B
:101FD000FF7303EA02231943018470470A46002174
:101FE000018C4DF6FF7319404FF6FF7303EA02337D
:101FF00019430184704730B5002301248C40A3B2FB
:10200000048C9C430484048C02FA01F5ADB22C4389
:10201000048430BD30B5002304248C40A3B2048C6A
:102020009C430484048C02FA01F5ADB22C43048471
:1020300030BD70B503460020002418461830012535
:102040008D40ACB21D8CA5431D8409B1082909D16E
:1020500000EB6100056825F0700505600568154313
:1020600005600EE00D1FC5F34E052844056825F4F4
:10207000E045056005684FF6FF7606EA022635431F
:10208000056070BD21B1028842F00202028004E0C6
:1020900002884FF6FD731A400280704721B1028812
:1020A00042F00402028004E002884FF6FB731A40FB
:1020B0000280704721B1828842F08002828004E071
:1020C00082884FF67F731A408280704702884FF6ED
:1020D000F7731A40028002880A43028070478288A0
:1020E0004FF68F731A40828082880A43828070473D
:1020F00002894FF6F8731A40028102890A4302816D
:10210000704702894FF67F731A40028102890A43A1
:10211000028170478184704781857047818670474E
:102120000187704781877047A0F840107047028888
:102130004FF6FF431A40028002880A43028070472C
:102140000146888E70470146088F70470146888F88
:1021500070470146B1F8400070470146888C7047CF
:102160000146088D704702460020138A0B400BB1D0
:10217000012000E000207047CA430282704730B55A
:102180000246002000230024158A05EA01039589F0
:1021900005EA010413B10CB1012000E0002030BDBC
:1021A000CA4302827047000010B50446FB488442CF
:1021B00009D101218803FFF79FF800214FF48040E7
:1021C000FFF79AF832E0F648844209D10121480429
:1021D000FFF79FF800214FF40030FFF79AF825E051
:1021E000F048844209D101218804FFF792F80021C8
:1021F0004FF48020FFF78DF818E0EB48844209D1B6
:102200000121C804FFF785F800214FF40020FFF7F3
:1022100080F80BE0E548844208D101210805FFF76A
:1022200078F800214FF48010FFF773F810BD2DE906
:10223000F04786B005460E460024A24600BFA146E0
:102240000027B08900B100BF2F462C8A4CF6FF70E2
:102250000440F08804432C82AC894EF6F31004400D
:10226000B08831890843718908430443AC81AC8A42
:102270004FF6FF400440B0890443AC8201A8FEF74A
:10228000B4FFC648874202D1DDF810A001E0DDF8B6
:102290000CA0A88900F4004040B10AEBCA0000EB92
:1022A0000A1031684900B0FBF1F807E00AEBCA00F8
:1022B00000EB0A1031688900B0FBF1F86420B8FB2C
:1022C000F0F004012009642101FB1089A88900F4C1
:1022D000004040B1322000EBC900B0FBF1F000F04B
:1022E0000700044308E0322000EB09106421B0FB32
:1022F000F1F000F00F0004432C8106B0BDE8F08738
:102300004FF41651016000218180C18001810C21B0
:10231000418100218181704710B502460020108A5A
:102320004FF2FF0318400B884C8823438C882343CB
:10233000CC8823431843108210BD002101804180C6
:102340008180C180704721B1828942F4005282812C
:1023500004E082894DF6FF731A4082817047F0B520
:102360000346002400260025002040F66A17B942E3
:1023700000D100BF1846C1F3421401F01F06012727
:1023800007FA06F5012C01D10C3004E0022C01D132
:10239000103000E014301AB107682F43076002E0E4
:1023A0000768AF430760F0BD1AB1838A0B4383828D
:1023B00002E0838A8B4383827047028A4FF6F07370
:1023C0001A400282028A0A430282704782894FF2CF
:1023D000FF731A40828182890A438281704721B14A
:1023E000828942F00202828104E082894FF6FD7305
:1023F0001A4082817047028A4FF6DF731A400282C8
:10240000028A0A430282704721B1028A42F4804262
:10241000028204E0028A4BF6FF731A400282704780
:10242000C1F308028280704701468888C0F3080023
:102430007047818941F0010181817047028BD2B2DE
:102440000283028B42EA012202837047028B02F46C
:102450007F420283028B0A430283704721B1828A42
:1024600042F02002828204E0828A4FF6DF731A4033
:102470008282704721B1828A42F01002828204E097
:10248000828A4FF6EF731A408282704721B1828AA6
:1024900042F00802828204E0828A4FF6F7731A4003
:1024A0008282704721B1828942F40042828103E036
:1024B0008289C2F30E028281704721B1828A42F47E
:1024C0000062828204E0828A4FF2FF731A408282A5
:1024D0007047828A4FF6FB731A408282828A0A43CF
:1024E0008282704721B1828A42F00202828204E035
:1024F000828A4FF6FD731A4082827047024600209E
:10250000B1F5007F00D100BF13880B400BB1012053
:1025100000E00020704701F40072B2F5007F00D1A6
:1025200000BFCA430280704770B5024600240023F2
:102530000025002040F66A16B14200D100BFC1F369
:10254000421501F01F03012606FA03F3012D02D103
:102550009689334006E0022D02D1168A334001E00D
:10256000968A33400C12012606FA04F41688344089
:1025700013B10CB1012000E0002070BD10B50022A5
:10258000002340F66A14A14200D100BF0A120124C0
:102590009440A3B2DC43048010BD00000038014029
:1025A0000044004000480040004C00400050004003
:1025B00010B56FF00400FDF7CCFF2E4800682E49DF
:1025C000B0FBF1F02D4908700846007800EB40019F
:1025D000C1EBC0104FF6FF7101EAC0002849088026
:1025E00010BD0146254A12784A434FF0E0235A6154
:1025F00000229A611A46126942F001021A6100BF74
:102600004FF0E022106900F001021AB100F48032AC
:10261000002AF5D04FF0E022126922F001024FF0BB
:10262000E0231A6100229A6170470146144A128819
:102630004A434FF0E0235A6100229A611A46126918
:1026400042F001021A6100BF4FF0E022106900F071
:1026500001021AB100F48032002AF5D04FF0E022D6
:10266000126922F001024FF0E0231A6100229A6100
:10267000704700000000002000127A00780000205F
:102680007A000020A34A0A400243A34B1A60704715
:102690000146072323EA010212029F4B1B1D186803
:1026A0004FF6FF0318409D4B184310439A4B1B1DD8
:1026B000186070472DE9F0410746884614461D46CC
:1026C0002846FFF7E5FFC5F1040007FA00F60F20E2
:1026D000284100EA0800064306F00F06E21704EB63
:1026E000D2625211920002F1E022D2F8002121467A
:1026F000E31704EBD3635B11A4EB431C012303FA40
:102700000CF31A432046E31704EBD3635B119B00E1
:1027100003F1E023C3F800218148005D40EA061080
:102720007F490855BDE8F08170B504460B46CE17C9
:1027300001EB9676C6F38700CE1701EB9676B610BE
:10274000A1EB8606B606350E764B9B6943F0010376
:10275000744EB3614FEAB63353F820300F26AE40C3
:10276000B343714E46F82030334653F8203004FA14
:1027700005F61E436C4B43F820606C4B1B6801262A
:102780008E403343694E336002F0010343B1674B1F
:102790000C331B6801268E403343644E0C36336085
:1027A00002F0020343B1614B08331E6801238B40E2
:1027B0001E435E4B08331E6070BD00B500205949B2
:1027C0000861C8601420486100208861C86108461B
:1027D000006840F00100086008464068544908401D
:1027E0005049486008460068524908404D49086011
:1027F0000846006820F4802008600846406820F4FD
:10280000FE0048600020886000214FF00060FFF764
:1028100039FF00BD10B540480830006840F00400A2
:102820003D49083108603F48C06940F080503D494B
:10283000C8614148406840F480703F49486008469C
:10284000006840F0040008600846006840F002009C
:102850000860FDF7BDFC10BD3048001D2E49091D64
:1028600008607047014649062E4A926942F001020B
:102870002C4B9A612C4A083A526822F0E0622A4BAB
:10288000083B5A601A4652680A435A60704730B58E
:1028900004460025FFF791FF2248006840F480308D
:1028A0002049086000BF1F480068400C0028FAD08B
:1028B0004FF480601B494860A01EC4B208464068BF
:1028C00040EA844048600846406840F480304860F0
:1028D0001A48006840F03200184908601148006842
:1028E00040F080700F49086000BF0E480068400E3D
:1028F0000028FAD00B48406840F0020009494860BF
:1029000005E008484068C0F3870505F00305022D7F
:10291000F7D130BD80FFFF1F08ED00E00000FA0591
:1029200000E400E000100240080001400004014003
:102930000000FFF8FFFFF6FE00700040002002409C
:10294000014600BF70472C4A12785AB900BF2B4A83
:10295000128802F04002002AF9D0C2B2274B1B1D98
:102960001A800AE000BF264A128802F04002002ABC
:10297000F9D0C2B2224B1B1D1A80704710B586B029
:102980000446012144F20400FEF79CFC4FF4007061
:10299000ADF8140003208DF8160018208DF81700EC
:1029A00005A91848FEF76CF94FF48060ADF81400E3
:1029B00004208DF8170005A91248FEF761F901946B
:1029C0000020ADF80800ADF80A00ADF80C00ADF835
:1029D00010000C20ADF80E0001A90948FFF727FCF4
:1029E000002240F225510648FFF7B9FC01210448B6
:1029F000FFF7A9FC06B010BD1B00002000480040F6
:102A0000003801400008014008B501210420FEF70C
:102A100059FC4FF48050ADF8000010208DF80300F1
:102A200003208DF8020069460C48FEF729F908BD1D
:102A300018B900210A4A11600FE00A490968491CC7
:102A4000084A1160814208D105490968C943064A0C
:102A5000C2F8B0110021034A11607047000801401C
:102A6000B0012142800000200000214208B5012170
:102A70000420FEF727FC4FF40040ADF8000048208A
:102A80008DF8030069464B48FEF7FAF808BD014689
:102A90004948006828B949480088401C474A1080C6
:102AA00002E00020454A10804348006828B94448A5
:102AB000007810B90120424A107042480078B0B93D
:102AC0003F480078012807D13F480078401C3E4A23
:102AD000107001203B4A10703B480078022806D154
:102AE0000020394A1070394A10800220704732485D
:102AF0000068012804D10020314A1070314A10705A
:102B00003148007801281CD130480088401C2F4AE9
:102B100010801046008888420ADD284800888842D4
:102B200006DA0020284A1070284A10800120DDE7CC
:102B300022480088884204DD0020234A1070234A7E
:102B400010800020D2E72248007838B11A48006887
:102B500020B900201E4908700120704716480068FF
:102B6000012801D11A4908700020F6E719480088A9
:102B700040B91148006828B917480088401C164918
:102B8000088002E000201449088013480088C82803
:102B900007DD01200F49088000200F49088001202F
:102BA00070470C480088012802D10020094908809C
:102BB0000020F5E7000801403C0121428A00002086
:102BC000840000208500002086000020880000206E
:102BD0008C000020900000208E00002010B50A46D6
:102BE0001AB10123FE4C236002E00023FC4C236059
:102BF000002114E00023FB4C236000F080031BB194
:102C00000123241F236003E00023F64C241F2360CC
:102C10000123F44C23604306180E4B1CD9B208293B
:102C2000E8DB0123EE4C236010BD30B500241CE02E
:102C300004F1B001C8B20021FFF7D0FF002108461F
:102C4000FFF7CCFF00211020FFF7C8FF002508E0A8
:102C5000E54901EBC501085D0121FFF7BFFF681CD5
:102C6000C5B2802DF4DB601CC4B2082CE0DB30BDA3
:102C700000B500218D20FFF7B1FF00211420FFF7E0
:102C8000ADFF0021AF20FFF7A9FF00BD00B5002177
:102C90008D20FFF7A3FF00211020FFF79FFF0021E9
:102CA000AE20FFF79BFF00BD30B500240CE00025EF
:102CB00006E00020CC4901EBC5010855681CC5B2EF
:102CC000802DF6DB601CC4B2082CF0DBFFF7ADFFF3
:102CD00030BDF0B5144600267F2801DC3F2900DD19
:102CE000F0BD0B46CF1701EB5777FF10C7F1070771
:102CF000FAB2CF1701EB5777FF10A1EBC707FDB270
:102D0000C5F107070123BB40DEB24CB1B64B03EB64
:102D1000C0039B5C3343B44F07EBC007BB5408E0D0
:102D2000B14B03EBC0039B5CB343AF4F07EBC00752
:102D3000BB5400BFD4E72DE9F04F80460C46154642
:102D40001E46A346A5F12000C5B200273EE00C2E8A
:102D500007D105EB4500A54901EB800010F807906D
:102D600004E0A34800EB051010F807904FF0000AAC
:102D700026E009F0800028B121464046099AFFF775
:102D8000A8FF09E0099808B9012000E000200246E8
:102D900021464046FFF79DFF4FEA49604FEA106920
:102DA000601CC4B2A4EB0B00B04205D15C4608F134
:102DB000010000F0FF0806E00AF1010000F0FF0A40
:102DC000BAF1080FD5DB00BF781CC7B2B742BEDB33
:102DD000BDE8F08F10B50246012000E050430B1E05
:102DE000A1F10104E1B2F9D110BD2DE9FF4F81B08D
:102DF000074691461E460E9D4FF0000A002439E01A
:102E0000301B401EC1B20A20FFF7E4FFB9FBF0F00F
:102E10000A21B0FBF1F201FB1208BAF1000F16D142
:102E2000701EA04213DDB8F1000F0ED10120AB4699
:102E300005EBDB71491001FB04710090C8B22B4611
:102E400020220299FFF777FF12E04FF0010A0120DC
:102E5000AB4605EBDB71491001FB04710090C8B271
:102E600008F13001CAB22B460299FFF764FF00BF98
:102E7000601CC4B2B442C3DB05B0BDE8F08F78B5C6
:102E800005460E46144618E07A2D03DD002506F1AE
:102E90001000C6B23A2E04DD002005460646FFF7B4
:102EA00003FF0120009022780C2331462846FFF7CB
:102EB00042FF05F10800C5B2641C20780028E3D168
:102EC00078BD08B501210820FEF7FCF91020ADF807
:102ED00000008DF8030002208DF802006946454885
:102EE000FDF7CEFE01211120FEF7ECF94FF4604012
:102EF000ADF8000002208DF8020010208DF80300CC
:102F000069463D48FDF7BCFE0120FEF712F800209F
:102F1000FEF745F90020FDF76EFD0020FEF709F8E9
:102F200000203049083908606420FFF77EFB01204B
:102F30003249C1F8B4010021AE20FFF74FFE002155
:102F4000D520FFF74BFE00215020FFF747FE002160
:102F5000A820FFF743FE00213F20FFF73FFE00219E
:102F6000D320FFF73BFE00210846FFF737FE002184
:102F70004020FFF733FE00218D20FFF72FFE0021B8
:102F80001420FFF72BFE00212020FFF727FE002151
:102F90000220FFF723FE0021A120FFF71FFE0021E2
:102FA000C020FFF71BFE0021DA20FFF717FE0021EB
:102FB0001220FFF713FE00218120FFF70FFE0021F2
:102FC000EF20FFF70BFE0021D920FFF707FE0021BD
:102FD000F120FFF703FE0021DB20FFF7FFFD0FE0EC
:102FE00090812142BC012242CC01002066B200083F
:102FF000DAB60008000C0140001001400000224237
:1030000000213020FFF7EAFD0021A420FFF7E6FDB4
:103010000021A620FFF7E2FD0021AF20FFF7DEFD33
:10302000FFF742FE08BD000000B587B001214FF454
:103030000170FEF747F94FF40040FEF7A7F81020A3
:10304000ADF8040000208DF8070001A93C48FDF709
:1030500017FE3C48FDF79CFA002002908DF80C000A
:103060008DF80D004FF460200490002005900120A1
:103070008DF8180002A93348FDF7B1FA0121314853
:10308000FDF7D9FA2F48FDF7F8FA00BF2D48FDF7F4
:10309000F9FA0028FAD12B48FDF7FEFA00BF2948BB
:1030A000FDF7FFFA0028FAD107B000BD10B50446BD
:1030B0000723012221462348FDF729FB012121484E
:1030C000FDF7F9FA00BF02211E48FDF765FC002854
:1030D000F9D01C48FDF782FB10BD2DE9F04F87B0F9
:1030E0000420FFF7E3FF834607F03CF94FF0663218
:1030F000154BCDE9000107F085F90022134BCDE90E
:10310000020107F07FF980460022114B07F07AF99F
:10311000064600220F4B06F087FF00220E4BCDE93A
:10312000040106F081FF044607F0D6F8824640F21B
:10313000EC40824500DD8246504607B0BDE8F08F86
:10314000000801400024014066660A400000274054
:10315000000059400000F03F0000B04030B585B09D
:1031600005460C4601210220FEF7B9F8012108208E
:10317000FEF7A8F80120ADF8100028208DF8130004
:1031800004A96848FDF77CFD0220ADF8100010206E
:103190008DF8130002208DF8120004A96148FDF794
:1031A0006FFDADF80850ADF804400020ADF80A00FE
:1031B000ADF8060001A95C48FEF7BCF908205B49A0
:1031C000088000204880012088800020C880088175
:1031D0005548FEF742FC1D208DF8000002208DF8B6
:1031E000010000208DF8020001208DF803006846E0
:1031F000FDF765F9012209214B48FEF712FD012177
:103200004948FEF7F3FC05B030BD10B50120484930
:1032100008600F20FFF7E5F900204649C1F8840156
:103220004548007800F08000E8B14348007800F09D
:103230003F004249086008460088000408600846CC
:1032400000683F49098808443C490860084600680E
:10325000AA2148434FF47A71B0FBF1F03749086076
:1032600000203549088010BD2F49103108883249A7
:10327000097801F0800100294ED100F00101D1B19F
:103280002D49097801F04001A9B12B49097801F0D5
:103290003F013F290AD12849098841F08001264A87
:1032A00011804FF6FF71264A118004E022490988F7
:1032B000491C214A118000F0080169B31E490978B0
:1032C00001F0400199B11C49098841F080011A4A76
:1032D000118015493C310988194A11801249203161
:1032E000098821F40071104A2032118014E0002175
:1032F000114A1180124A11800F49098841F040019A
:103300000D4A11800021084A24321180111F0988BA
:1033100041F40071121F11800021034A1032118004
:1033200070470000000C014000040040CC05002064
:10333000848121420080214292000020440000202C
:103340009400002008B501210820FDF7BBFF4FF4D1
:103350007040ADF8000010208DF8030003208DF8B8
:10336000020069462A48FDF78BFC08BD30B589B0DC
:1033700005460C46FFF7E6FF0121C802FDF7A2FF54
:1033800001210420FDF79EFF4FF41060ADF82000EE
:1033900018208DF8230003208DF8220008A91D486D
:1033A000FDF76EFCADF81850ADF814400020ADF8F4
:1033B0001A00ADF8160005A91748FEF7BBF8602003
:1033C000ADF804000120ADF806000020ADF80A00B9
:1033D000ADF80C0001A91048FEF7E9F801A90E4864
:1033E000FEF7BFF901210C48FEF70CFC08210A4842
:1033F000FEF72CFD08210848FEF747FD012106488D
:10340000FEF7F4FC01210448FEF7F0FB09B030BDE3
:10341000000C014000080140002C014000B587B0BD
:1034200001210846FDF75BFF01210420FDF74AFF5B
:103430000320ADF8000004208DF8030069466148C0
:10344000FDF71EFC04A8FEF7A1FB0020ADF810005C
:103450004FF6FF70ADF814000020ADF81600ADF87F
:10346000120004A94FF08040FEF764F800231A46CA
:1034700003214FF08040FEF76CFC01A8FEF799FB9A
:103480000A20ADF80C0001A94007FEF7E6FA012179
:103490008807FEF771FE012211469007FEF7C1FB77
:1034A00000214FF08040FEF735FE01218807FEF72E
:1034B0009DFB07B000BD00B587B001210420FDF7DA
:1034C0000EFF01210820FDF7FDFEC020ADF8000031
:1034D00004208DF8030069463B48FDF7D1FB04A8A2
:1034E000FEF754FB0020ADF810004FF6FF70ADF86A
:1034F00014000020ADF81600ADF8120004A93348FE
:10350000FEF718F800231A4603213048FEF721FC85
:1035100001A8FEF74EFB0A20ADF80C0001A92B48CC
:10352000FEF79BFA01212948FEF726FE01221146EB
:103530002648FEF776FB00212448FEF7EBFD01212B
:103540002248FEF753FB07B000BD0146022904D014
:1035500003290BD0042919D10FE04FF08042928C3F
:1035600010B200224FF080439A8411E0184A12886A
:1035700010B20022164B1A800AE0144A2432128834
:1035800010B20022114B24331A8001E0002000BF4A
:1035900000BF70470D48103000880C48103000887C
:1035A00020F0010009491031088070474FF0804039
:1035B000008A4FF08040008A20F001004FF08041E7
:1035C0000882704700080140000C014000080040DC
:1035D0002404004008B501210820FDF773FE4FF4D4
:1035E0004070ADF8000010208DF8030003208DF826
:1035F00002006946F748FDF743FB08BD10B5F548E2
:10360000001D006820F0F000F249091D086008461E
:10361000006840F0300008600120EF490860EF4882
:10362000D0F8240108B9002010BD0120EA49091F83
:103630000860FEF7D6FF0020E849C1F8A401E6487B
:103640008038006808B10020EEE70120FEF7C9FFCE
:103650000020E149091F08600120E5E710B5DD48B9
:10366000001D006820F0F000DA49091D08600846D6
:10367000006840F0300008600020D749091F08604A
:10368000D649C1F8A4010120FEF7ABFF0120D249C1
:10369000091F0860D149C1F8A401FEF7A2FF10BDBF
:1036A00010B50024CB48001D006820F0F000C94987
:1036B000091D08600846006840F08000086001208D
:1036C000C5490860FEF78DFF0120C449C1F8A0017B
:1036D000FEF787FF0AE0601CC4B2322C03DDFFF75F
:1036E000BDFF002010BD0120FEF77BFFBA488038E7
:1036F00000680028EFD1B849091F08600120F1E7F0
:1037000010B50020B449091F0860B248001D0068C8
:1037100020F0F000AF49091D08600846006840F03D
:10372000300008600020AD49C1F8A4010120FEF777
:1037300058FF0120A849091F0860FEF752FF00202A
:10374000A649C1F8A00110BD10B50020A249091F6B
:103750000860A048001D006820F0F0009D49091D88
:1037600008600846006840F03000086001209B496E
:10377000C1F8A401FEF735FF01209749091F086031
:10378000FEF72FFF00209549C1F8A00110BD70B5CC
:1037900004469048001D006820F0F0008D49091D86
:1037A00008600846006840F03000086000208A4940
:1037B000091F0860002516E0E009874908606006D7
:1037C000040E0120FEF70DFF01208449C1F8A0017D
:1037D000FEF707FF00208049091F08600120FEF75F
:1037E00000FF681CC5B2082DE6DB70BD2DE9F04175
:1037F00005460E4617469846FFF700FF10B9012010
:10380000BDE8F0816906080EFFF7C1FFFFF748FF2A
:1038100018B9FFF723FF0120F2E73046FFF7B7FFA3
:10382000FFF73EFF00240BE018F80400FFF7AFFF9E
:10383000FFF736FF18B9FFF711FF0020E0E7641C1F
:10384000BC42F1DBFFF70AFF0020D9E770B505465F
:1038500000246048001D006820F0F0005D49091D4B
:1038600008600846006840F080000860002617E005
:1038700000205949091F08600220FEF7B2FE01200E
:103880005649C1F8A0016006040E5348803800680C
:1038900008B1601CC4B20220FEF7A3FE701CC6B2C1
:1038A000082EE5DB15B1FFF72BFF01E0FFF74CFF1A
:1038B000204670BD2DE9F04106460F4614461D46D0
:1038C000FFF79CFE10B90120BDE8F0817106080EDB
:1038D000FFF75DFFFFF7E4FE18B9FFF7BFFE012019
:1038E000F2E73846FFF753FFFFF7DAFEFFF786FEF1
:1038F000012101EB4601C8B2FFF749FFFFF7D0FEF7
:103900000DE0012C04D10020FFF7A0FF287003E098
:103910000120FFF79BFF28706D1C601EC4B2002CB5
:10392000EFD1FFF79BFE0020CEE770B505460E46AF
:103930000024FFF763FE2846FFF729FF641CFFF70A
:10394000AFFE3046FFF723FF641CFFF7A9FEFFF729
:1039500055FE691CC8B2FFF71AFF641CFFF7A0FEF2
:103960000020FFF773FF0446FFF778FE204670BD86
:103970002DE9F0410746884615461E460024FFF70C
:103980003DFE3846FFF703FFFFF78AFE4046FFF78C
:10399000FEFEFFF785FEFFF731FE791CC8B2FFF788
:1039A000F6FEFFF77DFE00BF0DE0681EA04204D0CA
:1039B0000120FFF74BFF305503E00020FFF746FFE3
:1039C0003055601CC4B2AC42EFDBFFF747FE204627
:1039D000BDE8F081000C0140A48121420080214219
:1039E0002DE9F04180460D4616461F460024FFF79C
:1039F00005FE4046FFF7CBFEFFF752FE2846FFF7D5
:103A0000C6FEFFF74DFE00BF06E0385DFFF7BFFEC4
:103A1000FFF746FE601CC4B2B442F6DBFFF71EFEA1
:103A20000120BDE8F08170B505460E4614463146CA
:103A30002846FFF77AFF2070012070BD37B5044695
:103A40000D4602AB012229462046FFF7C9FF3EBDC5
:103A50002DE9F8430746884614461D46089E6A46E7
:103A600041463846FFF7DFFF28B3601CFF2101FA0B
:103A700000F0C4F108012944491EFF220A41104305
:103A800000F0FF09C5F1080006FA00F0C6B2C4F163
:103A9000070006419DF8000000EA090000909DF82B
:103AA0000000304300909DF8002041463846FFF763
:103AB000C5FFBDE8F8830020FBE7F8B506460F46D2
:103AC00014461D466A4639463046FFF7ACFF2DB115
:103AD0000120A0409DF80010084305E00120A0400F
:103AE0009DF8001021EA0000C0B200909DF800206F
:103AF00039463046FFF7A2FFF8BD000010B586B08A
:103B0000044601210820FDF7DDFB01218804FDF7B3
:103B1000E6FB4FF48060ADF8140003208DF816002A
:103B200018208DF8170005A9F448FDF7A9F84FF4FF
:103B30000060ADF8140004208DF8170005A9EF48C7
:103B4000FDF79EF827208DF8000000208DF8010079
:103B500001208DF802008DF803006846FCF7AFFCE9
:103B600001940020ADF80800ADF80A00ADF80C0093
:103B7000ADF810000C20ADF80E0001A9E048FEF7EA
:103B800056FB012240F22551DD48FEF7E8FB0121FA
:103B9000DB48FEF7D8FB06B010BD2DE9FF5F40F211
:103BA0002551D748FEF7C0FC002876D0D448FEF750
:103BB0003BFCD449086008460078D3490870D148D6
:103BC0000068592802D10220D0490870CD48006809
:103BD000582802D10120CD490870CA4800680A2837
:103BE00065DDC84800685A2809D10020C849087016
:103BF000C8490870C8490870C849087057E0C148EA
:103C0000006841280AD10120C14908700020C1493B
:103C10000870C1490870C149087048E0B948006897
:103C200045280BD10020BA4908700120B949087015
:103C30000020B9490870B949087038E0B1480068F7
:103C4000422807D0AF480068432803D0AD48006839
:103C500044280AD10020AE490870AE490870AE4928
:103C600008700120AD49087021E0A6480068462888
:103C700007D0A4480068472803D0A2480068482815
:103C80000CD10020A2490870A24908700120A24965
:103C900008700020A149087009E007E100209C4954
:103CA00008709C4908709C4908709C4908709548A8
:103CB00000680A2865DA0120944908709148006874
:103CC00048B90020924908709249087092490870DA
:103CD0009249087055E08B480068012809D18C4949
:103CE000087000208B4908708B4908708B49087058
:103CF00047E08448006805280BD1002084490870FB
:103D000001208449087000208349087083490870A5
:103D100037E07C480068022807D07A48006803280A
:103D200003D07848006804280AD100207849087038
:103D3000784908707849087001207849087020E0B7
:103D400070480068062807D06E480068072803D02E
:103D50006C48006808280BD100206D4908706D4937
:103D6000087001206C49087000206C49087008E058
:103D700000206749087067490870674908706749FB
:103D80000870614800787B2802D1012064490870DE
:103D90005D4800787D2802D10220614908706048A2
:103DA000007801280AD1584800785E495E4A1278A6
:103DB00088545D480078401C5B490870584800787A
:103DC000022873D15848007807F010F85749086066
:103DD0005448C078502803D10120554908707DE02F
:103DE0005048C078572803D101205249087075E027
:103DF0004C484078232871D04B4800784E490870D1
:103E000034E0494909784C4A1278881A06F093FA46
:103E1000804642460B460020484905F005FB044613
:103E20000D4645490978491E3E4A515CA1F13000D2
:103E300006F081FA064622462B4606F0E3FA824651
:103E40008B463F48006806F0EDFD52465B46CDE9E3
:103E5000000106F02DF8CDE9020105F0F7FF384921
:103E6000086035480078401E3349087032480078B1
:103E70000428C6DA2B484078303809282DD2DFE8EC
:103E800000F0050D161E262728292B002D492C4849
:103E9000006806F061FE2C4908601EE029492848A8
:103EA000006806F059FE2949086016E023E025491C
:103EB0002348006806F050FE254908600DE02149BE
:103EC0001F48006806F048FE2249086005E004E04B
:103ED00003E002E001E001E000BF00BF0020104964
:103EE000087011490870144908701549086032219A
:103EF0000C4804F077FDBDE8FF9F0000000C014076
:103F000000480040A8000020980000201900002070
:103F100015000020160000201700002018000020C7
:103F2000AC000020D6050020AD000020400000209D
:103F30004B0000204C000020AE0000200000244078
:103F4000B00000200000C8425400002058000020AB
:103F50005C000020600000201FB501210846FDF72D
:103F6000B1F901210820FDF7ADF92020ADF80C00D2
:103F700048208DF80F0003A91148FCF781FE0521A8
:103F80000120FCF793FF2020019000208DF808000D
:103F90000C208DF8090001208DF80A0001A8FCF71B
:103FA0008FFD17208DF8000002208DF80100012000
:103FB0008DF802008DF803006846FCF780FA1FBDFB
:103FC000000C01400146002901DA484200E00846A1
:103FD000704700B503460A46002B07DA0120FA496C
:103FE00008600020F949C1F8B80106E00020F64950
:103FF00008600120F549C1F8B8011846FFF7E2FF53
:10400000F3490880002A08DA0020EF4908390860DF
:104010000120EE49C1F8B00107E00120EA49083962
:1040200008600020E949C1F8B0011046FFF7CAFF57
:10403000E7490C31088000BD70B506460D46E549DC
:10404000304606F0E7FE0CD3E349304606F0E2FFC7
:1040500007D3E2480078012803D040F25640854259
:104060000EDA01240020D849091F0860D749C1F899
:10407000BC01D54908390860D449C1F8B00100E055
:104080000024204670BD70B506460C461546D34840
:10409000007808B9002070BDD148008870B9D149B6
:1040A000304606F0B7FF09D2CF49304606F0B2FEDF
:1040B00004D21CB915B90120C9490880C848008834
:1040C000012819D1C9480088401C80B2C74908801E
:1040D000322803DD00200880C1490880032C0BDD55
:1040E000032D09DD3C2C07DA3C2D05DA0020BC4904
:1040F000088008800120CEE70020CCE72DE9F041C0
:1041000007460E4614461D46B9480088E0B92046C9
:10411000FFF758FF02462846FFF754FF10441E28B9
:1041200005DAB4480088401CB249088002E000204B
:10413000B0490880AF4800880A2805DD0120AC4955
:1041400008800020AB490880A948008801281DD1BB
:10415000A9480088401C80B2A7490880C82803DD10
:1041600000200880A2490880A449384606F052FF82
:104170000CD2A349304606F04DFF07D2A149304684
:1041800006F048FE02D2022099490880984800882B
:10419000022816D19C480088401C80B29A490880A9
:1041A000642803DD00200880914908806019FFF72A
:1041B00009FF872805DD00208D4908800120BDE822
:1041C000F0810020FBE741F6F420904909780129AD
:1041D00004D18F49096864398D4A11608D49097885
:1041E000012904D18C49096864318B4A11608849DE
:1041F00009684242914202DA4142854A116084498B
:104200000968814201DD82490860834909684242A8
:10421000914202DA4142804A11607F490968814235
:1042200001DD7D49086070472DE9F84F05460E46CF
:1042300091467A480078582191FBF0F7384606F00D
:10424000BDFD0446DFF8D8A14FF0000B754800789B
:10425000012803D074480078012834D14FF07E51F2
:104260007248006806F00AFC7049074608604FF083
:104270007E5106F033FD07D1A819FFF7A3FE0746CC
:1042800006F09CFD6A49086069480168694806F0C3
:1042900063FC694908600846006806F0C3FB0746EE
:1042A0004FF03332654B06F071F802D26448624930
:1042B000086064496048006806F0ACFE0BD26148B3
:1042C0005D49086007E060485B4908600020574985
:1042D00008605749086053480078012808D15648BB
:1042E00001685A48006806F0D1FE584908600FE09E
:1042F0004D480078012808D14F48016853480068AC
:1043000006F0BCFB5149086002E000204F490860FC
:1043100021464E48006806F07DFE01D24B480460FD
:1043200084F0004749480168384606F073FE03D21E
:1043300084F000404549086034480078012803D0E3
:1043400034480078012802D14FF07C5B01E04FF047
:10435000000B5946484606F091FD00903B48006826
:1043600080F000485146404606F088FD0746009917
:1043700006F08CFE364908600846006806F0E2FC4C
:10438000BDE8F88F2DE9F05F32480078012807D1A9
:1043900022480078012803D12F483049086002E004
:1043A0002F482E4908601948007801285CD11B4825
:1043B000007806F01BFD044621462848006806F0F8
:1043C000CBFB2849086066E0BC8121420080214285
:1043D000342C0140000020C2000020421A000020BE
:1043E000040100200000E0C0000050410601002050
:1043F000FC000020FE000020000100200020CB4631
:10440000000088C10000B841020100201500002012
:1044100024000020160000202800002019000020A1
:10442000000028421700002018000020F80000209B
:10443000F000002000004842F40000203333E33F46
:104440009A99193F000040406666663FE8000020E8
:10445000EC0000204A00002000003442E40000206C
:104460000000DC42DC000020FE48007801280FD16B
:10447000FD48007806F0BAFC0546FC48006880F06C
:1044800000442946204606F067FBF949086002E02F
:104490000020F7490860F748007801281BD1F6484A
:1044A0000068B0F5FA7F16D2F4480078012812D0DF
:1044B000F348007801280ED0EB48007806F096FC0F
:1044C0000546EA48006880F000442946204606F088
:1044D00043FBE7490860EB490968EB4A126811445D
:1044E000084606F06BFCE9490860E948006806F0F8
:1044F00099FA0646E74AE84B05F084FF044605F0C2
:10450000A5FCE3490860E148006806F08BFA8046A4
:10451000E04AE24B05F076FF04460D46DC480068B1
:1045200006F080FA064622462B4605F0C1FC82467C
:1045300005F08CFCD649086008460168D848006838
:1045400006F09CFAD6490860C9480168D44800685A
:1045500006F09CFDD2490860D249D148006806F0B7
:1045600059FD02D2CF48CE490860CF49CC480068F7
:1045700006F050FC02D2CC48C9490860CB4801681B
:10458000C748006806F07AFC0446C9480168C0487C
:10459000006806F073FC0546214606F06FFAC5492F
:1045A0000860C5480168C5480068FFF745FD012857
:1045B00003D0C3480078012802D10020B849086020
:1045C000BC48006806F0BEFBBDE8F09F2DE9F0474F
:1045D00005460C46BB49284606F058FD8046BA48B9
:1045E0000168204606F04AFC81464146B74800680B
:1045F00006F044FC8246494606F040FA074606F0BB
:10460000A1FB06463046BDE8F08770B53220FEF7C4
:104610003EFA0546012D07D1A948007808B90120C6
:1046200000E00020A6490870022D07D1A8480078B4
:1046300008B9012000E00020A5490870FEF796FAAD
:104640000446012C07D18B48007808B9012000E00E
:1046500000208849087070BD2DE9F04F89B081466F
:1046600003F0F7FB9B490860B9F1010F1BD103F080
:104670005FFA99480068914908609849B1F90200C9
:1046800006F09CFB964908609449B1F9040006F0D5
:1046900095FB944908609449B1F9040006F08EFB3B
:1046A00092490860B8E04621D020FFF73EF98046E5
:1046B0004521D020FFF739F908EB0027384606F0EE
:1046C0007DFB04464821D020FFF72FF98046472183
:1046D000D020FFF72AF908EB0027384606F06EFBDA
:1046E00006463C21D020FFF720F980463B21D02010
:1046F000FFF71BF908EB0027384606F05FFB8346FF
:104700004021D020FFF711F980463F21D020FFF74C
:104710000CF908EB0027384606F050FB05464FF031
:104720008E41204606F076FC05D24FF08F412046A0
:1047300006F0ACFC04464FF08E41304606F06AFCB1
:1047400005D24FF08F41304606F0A0FC06464FF0F0
:104750008E41584606F05EFC05D24FF08F41584618
:1047600006F094FC83464FF08E41284606F052FC3A
:1047700005D24FF08F41284606F088FC054684F0AC
:10478000004057490860284606F04CF9CDE9000181
:10479000584606F047F90746DDE9002304F084FD9A
:1047A0000022534BCDE9020105F02CFE514A524B39
:1047B000CDE9040105F038FCCDE9060105F046FB22
:1047C0008246204606F02EF94FF066324B4BCDE97B
:1047D000060105F029FC074605F038FB0446484869
:1047E0000078022806D184F000473946504603F08D
:1047F0009FFE09E042480078032805D184F0004775
:104800003946504603F0ABFF3E4800682B4908602C
:10481000344806603548056009B0BDE8F08F10B532
:1048200039480068002879D1202038490860384884
:10483000007808B9012000E00020354908703548AB
:10484000007801280BD134480078401CC0B23249AE
:1048500008700A2803D1002008702E4908702C48DF
:1048600000785CE01600002019000020E400002021
:10487000DC0000204A000020440000201700002037
:10488000180000201C00002020000020D400002080
:10489000D80000209A9999999999E93F9999C93F27
:1048A000E000002000401C4600401CC660000020C4
:1048B0005C000020D00000203000002034000020E8
:1048C0001A00002000004040580000205400002042
:1048D0001B0000202C000020440100203401002097
:1048E000380000203C0000203A0100205000002049
:1048F00000806640F1D4C853FB2109406666304011
:10490000140000207C010020148121421404014085
:10491000C000002049000020480000209EE001283F
:1049200025D14F480078FFF797FEFEF7D6FB4D499B
:1049300008604D480068401C4B4908604B480068BF
:10494000484909680844494908604748006864289C
:104950000BD108460068642190FBF1F044490860DF
:1049600000204249086040490860002010BD022034
:10497000FEF7EBFD40423F4908600420FEF7E5FDED
:104980003D49086036480078FFF766FEFEF73DFCBB
:104990003A48007810B96420FEF74AF837480078A2
:1049A000012802D10020FEF743F8FFF72EFE34481D
:1049B000016834480068FFF709FE334908602E4853
:1049C00001682C480068FFF7DDFC3049086030487A
:1049D00002682948016827480068FFF725FC2D492F
:1049E00008602948006829490968401A2949096866
:1049F0000844294908602448006824490968401A85
:104A000024490968401A25490860FFF7DCFB1A4869
:104A10000368184802681B48016821480068FFF7CE
:104A20006DFB10B101201F4908701348026811483E
:104A3000016814480068FFF726FB10B100201949EF
:104A400008700B4801680F480068FFF7F5FA28B9AD
:104A50001248016810480068FFF7BBFA002085E79C
:104A600014000020C4000020C8000020CC0000205A
:104A7000300000201C000020200000204A00002000
:104A80003800002034000020B4000020B8000020CE
:104A90003C000020BC000020240000202800002052
:104AA000500000201A00002038B50446FB4890F85A
:104AB0002400C0B114B10220009001E00020009059
:104AC000F64A1268D17BF54A526810786B4601228B
:104AD000FEF78CFE10B14FF0FF3038BD9DF800108E
:104AE000EE48417423E0ED48807A10B94FF0FF3072
:104AF000F3E724B1E948407C08B10020EDE714B1A8
:104B00000120009001E000200090E44A1268D17B6F
:104B1000E24A526810786B460122FEF767FE10B138
:104B20004FF0FF30D9E79DF80010DC4841740020B9
:104B3000D3E738B5002419E0D8480068C07AA0420D
:104B400004D0D6480068407DA04200D10CE0D34993
:104B5000496808786B4601222146FEF7ABFE10B18A
:104B60004FF0FF3038BD00BF601CC4B2CB48406876
:104B70000079A042E0DC0020F4E770B504460D4661
:104B8000C6480068C07AA04204D0C4480068407D8E
:104B9000A04202D14FF0FF3070BDC048406800799C
:104BA000A04202DC4FF0FF30F6E7BC4949680878C4
:104BB0002B4601222146FEF77DFEEDE738B504467F
:104BC000B64890F82300A04201D1002038BD14B1AE
:104BD0003020009001E000200090B048807C20B19F
:104BE0009DF8000040F002000090AC4890F82200D0
:104BF00020B19DF8000040F080000090A74A1268A4
:104C0000117DA64A526810786B460122FEF7EEFD30
:104C100010B14FF0FF30D9E7A04880F823400020C2
:104C2000D4E738B5044604F0700010B101200090BC
:104C300005E014B10020009001E040200090974A68
:104C40001268917C954A526810786B460122FEF7F3
:104C5000CDFD20B1002191488172481E38BD9DF8DC
:104C6000000020F040018D4801730020009004F006
:104C7000400020B99DF8000040F00400009004F0CE
:104C8000200020B99DF8000040F00200009004F0E0
:104C9000100020B99DF8000040F00100009004F0E1
:104CA000080020B99DF8000040F0380000907B4AD1
:104CB0001268D17C794A526810786B460122FEF75F
:104CC00095FD20B1002175488172481EC6E724B1C8
:104CD000082C02D00020FFF771FF70488472002179
:104CE00001753220FDF7A1FC0020B7E738B5044676
:104CF0006A48807CA04201D1002038BD002C46D0FB
:104D0000664A12681179654A526810786B4601222A
:104D1000FEF7D0FD10B14FF0FF30EEE79DF8000038
:104D200020F0200000905D4A126811795B4A5268B9
:104D300010786B460122FEF759FD10B14FF0FF309D
:104D4000DBE70320FDF771FC02200090534890F848
:104D5000220020B19DF8000040F0800000904F48F4
:104D600090F8230020B19DF8000040F03000009042
:104D70004A4A1268117D494A526810786B460122EE
:104D8000FEF734FD002851D04FF0FF30B5E7434A1D
:104D900012681179414A526810786B460122FEF779
:104DA00089FD10B14FF0FF30A7E73C48807A00F052
:104DB000010028B19DF8000040F02000009004E0C0
:104DC0009DF8000020F020000090344A126811790C
:104DD000324A526810786B460122FEF707FD10B187
:104DE0004FF0FF3089E70320FDF71FFC2B4890F8B8
:104DF000220010B18020009001E0002000902748A0
:104E000090F8230020B19DF8000040F030000090A1
:104E1000224A1268117D214A526810786B4601229D
:104E2000FEF7E4FC10B14FF0FF3066E71B488474D6
:104E3000002062E708B51948807A10B94FF0FF30BA
:104E400008BD00200090154A1268D17B134A5268B1
:104E500010786B460122FEF7C9FC10B14FF0FF300D
:104E6000EEE70E4A126851790C4A526810786B4688
:104E70000122FEF7BBFC10B14FF0FF30E0E7074A1C
:104E800012681179054A526810786B460122FEF7C4
:104E9000ADFC28B14FF0FF30D2E700000801002040
:104EA000F74890F82400002850D00C200090F44AD5
:104EB00012681179F24A526810786B460122FEF7A7
:104EC00095FC10B14FF0FF30BAE7C0200090EC48DD
:104ED000807A00F0010020B19DF8000040F0200031
:104EE0000090E74A12681179E54A526810786B46DB
:104EF0000122FEF77BFC10B14FF0FF30A0E7E04845
:104F0000407C10B10220009001E000200090DC4ABB
:104F10001268D17BDA4A526810786B460122FEF79C
:104F200065FC10B14FF0FF308AE700200090D44AB2
:104F300012685179D24A526810786B460122FEF706
:104F400055FC002852D04FF0FF3079E70420009044
:104F5000CB4A12681179CA4A526810786B4601220E
:104F6000FEF744FC10B14FF0FF3069E7C448807C85
:104F700020B9C348807A00F0010010B940200090A9
:104F800001E060200090BE4A12681179BC4A526864
:104F900010786B460122FEF729FC10B14FF0FF306C
:104FA0004EE7B748407C10B10120009001E000209E
:104FB0000090B34A1268D17BB14A526810786B46B0
:104FC0000122FEF713FC10B14FF0FF3038E7AC4A76
:104FD00012685179AA4A52681078A94B10330122FD
:104FE000FEF704FC10B14FF0FF3029E7002027E75F
:104FF00070B50446002624F00104A14890F824006E
:1050000008B1002070BD9E48807A10B94FF0FF3083
:10501000F8E79B48057C807A204099490874084647
:10502000007CA04202D04FF0FF3600E0002614B909
:105030009348007D18B10120FFF736FD02E0002003
:10504000FFF732FD3CB1FFF7F5FE20B18C48057447
:105050004FF0FF30D6E73046D4E738B504468848ED
:10506000807A10B94FF0FF3038BDBC2C02DB012034
:10507000009015E0622C02DB0220009010E02A2C48
:1050800002DB032000900BE0142C02DB04200090D4
:1050900006E00A2C02DB0520009001E006200090CB
:1050A0007748C07A9DF80010884201D10020DBE7E4
:1050B000734A12689178724A526810786B460122DE
:1050C000FEF794FB10B14FF0FF30CDE79DF80010D4
:1050D0006B48C1720020C7E738B50446282C02DDB2
:1050E0004FF0FF3038BDDCB90020FFF767FD00202E
:1050F0008DF8000007208DF80100614A1268917C4C
:105100005F4A526810786B460222FEF76FFB10B1BF
:105110004FF0FF30E6E70021594801750020E1E734
:105120000120FFF74BFD20208DF80000012C06D157
:1051300000208DF801000520FFF78FFF17E0052CF8
:1051400006DC01208DF801000520FFF786FF0EE048
:10515000142C06DC02208DF801000A20FFF77DFFE9
:1051600005E003208DF801001420FFF776FF9DF87D
:105170000100072101EB8010C0B28DF80100404A08
:105180001268917C3E4A526810786B460222FEF704
:105190002DFB10B14FF0FF30A4E708213848817291
:1051A00000210173012101750020FFF721FF00207C
:1051B00098E738B504463248807A10B94FF0FF308E
:1051C00038BD2F4890F8240010B14FF0FF30F7E7BA
:1051D0002B48007D50B134B1282C04DCE0B2FFF73D
:1051E0007BFF0020ECE70020FFF776FF042C01DABC
:1051F000042404E0B4F57A7F01DD4FF47A744FF4AF
:105200007A7090FBF4F0401EC0B200901C4A126805
:1052100051781B4A526810786B460122FEF7E6FA75
:1052200010B14FF0FF30CBE79DF80000401C4FF469
:105230007A7191FBF0F081B21148C1810146C989B0
:105240004810FFF70AFF0020BAE738B504460C48BB
:10525000807A10B94FF0FF3038BD022C06D0042CF4
:1052600007D0082C08D0102C0FD10BE000200090A4
:105270000EE0082000900BE01020009008E00000F5
:10528000080100201820009002E04FF0FF30E3E713
:1052900000BFF948407A9DF80010B0EBE10F01D152
:1052A0000020D9E7F44A1268D179F34A526810789D
:1052B0006B460122FEF79AFA10B14FF0FF30CBE7B0
:1052C0009DF80000C110EC4841720020C4E738B5D9
:1052D0000446E948807A10B94FF0FF3038BDFA2C07
:1052E00009D0B4F5FA7F09D0B4F57A7F09D0B4F5C6
:1052F000FA6F0CD108E0002000900BE0082000902D
:1053000008E01020009005E01820009002E04FF027
:10531000FF30E3E700BFD848007A9DF80010B0EBFB
:10532000E10F01D10020D9E7D34A12689179D24A1E
:10533000526810786B460122FEF758FA10B14FF010
:10534000FF30CBE79DF80000C010CB490872002069
:10535000C4E71CB580208DF80000C74A1268917C14
:10536000C54A526810786B460122FEF73FFA10B129
:105370004FF0FF301CBD6420FDF757F900208DF879
:105380000000BD4A1268917CBB4A526810786B4697
:105390000122FEF72BFA10B14FF0FF30EAE7B64AD0
:1053A0001268917DB44A526810786B460622FEF767
:1053B00081FA10B14FF0FF30DCE79DF80500C0071F
:1053C000400F9DF8031001F0010140EA41009DF8F3
:1053D000011001F0010140EA010494B1012C03D154
:1053E0000121A548C17431E0022C03D10021A2485B
:1053F000C1742BE02146A1A003F044FA4FF0FF3026
:10540000B8E79D4A1268D1789B4A526810786B467B
:105410000122FEF74FFA10B14FF0FF30AAE79DF8D6
:10542000000000F00F042CB99E4803F02BFA4FF057
:10543000FF309FE7042C06D19BA003F023FA012143
:105440008D48C17402E000218B48C174FF218A4855
:105450008172FF2088490872FF2187484172C1721A
:105460004FF6FF71C181FF21017481740121017325
:1054700080F82210002180F8231041750175163044
:10548000016041608160163880F8241080F8251092
:10549000C1844FF4FA60FFF71AFF10B14FF0FF30EC
:1054A00068E70220FFF7D1FE10B14FF0FF3061E74F
:1054B0002A20FFF7D2FD10B14FF0FF305AE732201B
:1054C000FFF777FE10B14FF0FF3053E70020FFF7F2
:1054D0008FFD10B14FF0FF304CE70020FFF706FCC6
:1054E00010B14FF0FF3045E70020FFF79AFB002096
:1054F00040E770477CB504460D465F48807A00F06F
:10550000700010B94FF0FF307CBD5B4A1268117B10
:10551000594A526810786B460622FEF7CBF910B153
:105520004FF0FF30F0E79DF801009DF8001040EAD1
:10553000012000B220809DF803009DF8021040EA8F
:10554000012000B260809DF805009DF8041040EA3B
:10555000012000B2A08015B12846FFF7CAFF002045
:10556000D2E77CB504460D464348807A00F0080037
:1055700010B94FF0FF307CBD3F4A1268517B3E4A64
:10558000526810786B460622FEF794F910B14FF07E
:10559000FF30F0E79DF801009DF8001040EA01207F
:1055A00000B220809DF803009DF8021040EA01201F
:1055B00000B260809DF805009DF8041040EA0120CB
:1055C00000B2A08015B12846FFF793FF0020D2E774
:1055D0002DE9FE4F05460C462748807A18B94FF052
:1055E000FF30BDE8FE8F244A1268917B224A526840
:1055F000107802AB0222FEF75DF910B14FF0FF30D8
:10560000EFE79DF809009DF8081040EA012006B276
:1056100014B12046FFF76DFF17494968C88805F0A7
:10562000E5FB154901904968B1F9080005F0C6FB92
:105630008346304605F0C2FB5946009005F026FD32
:105640008246019905F088FA81461F4905F016FA4D
:1056500080464FF08F4105F011FC074605F072FBC4
:1056600028600020BDE710B588B004461CB94FF093
:10567000FF3008B010BD29E008010020556E737599
:1056800070706F7274656420736F66747761726591
:105690002070726F64756374207265762025642EA5
:1056A0000A00000090CA000848616C662073656EAD
:1056B0007369746976697479207061727420666F99
:1056C000756E642E0D0A000000000C42206830B98F
:1056D000606820B9A06810B9002008B010BDFA4970
:1056E0004968087806AB03221146FEF7E3F810B1CB
:1056F0004FF0FF30F1E79DF81800082101EB201072
:1057000000F00F00ADF800009DF8190001EB20102B
:1057100000F00F00ADF802009DF81A0001EB201018
:1057200000F00F00ADF8040020684100BDF9000052
:10573000403091FBF0F000B2ADF81000606841001D
:10574000BDF90200403091FBF0F000B2ADF812005C
:10575000A0684100BDF90400403091FBF0F000B2B8
:10576000ADF81400D8494968087806AB06221146FE
:10577000FEF7A0F810B14FF0FF30AEE79DF819002A
:105780009DF8181040EA012000B2ADF808009DF81D
:105790001B009DF81A1040EA012000B2ADF80A0083
:1057A0009DF81D009DF81C1040EA012000B2ADF8E4
:1057B0000C00BDF81000BDF80810084400B2ADF8A8
:1057C0001000BDF81200BDF80A10084400B2ADF890
:1057D0001200BDF81400BDF80C10084400B2ADF87A
:1057E0001400BDF81000000A8DF81800BDF8100074
:1057F000C0B28DF81900BDF81200000A8DF81A0029
:10580000BDF81200C0B28DF81B00BDF81400000AEC
:105810008DF81C00BDF81400C0B28DF81D00AA4917
:105820004968087806AB06221146FDF7DFFF10B184
:105830004FF0FF3051E700204FE70146A248007AC1
:1058400030B1012807D0022809D003280FD10AE07F
:10585000FA2008800EE04FF4FA7008800AE04FF456
:105860007A70088006E04FF4FA60088002E00020B9
:10587000088000BF00BF0020704701469248407A70
:1058800030B1012807D0022808D003280CD108E045
:10589000022008700BE00420087008E0082008705F
:1058A00005E01020087002E04FF0FF30704700BFA5
:1058B0008548C07C18B108784006000E08700020AA
:1058C000F4E701468048C07A082817D2DFE800F0E4
:1058D0001704070A0D101318BC20088013E062207B
:1058E000088010E02A2008800DE0142008800AE0DB
:1058F0000A20088007E00520088004E000BF00BF00
:105900000020088000BF00BF0020704701466E489D
:1059100090F8240010B14FF0FF3070476A48C089FA
:1059200008800020F9E7014600200880401E7047EB
:1059300001464FF0FF30704701466348007A30B1AE
:10594000012807D0022808D003280CD108E05F48BE
:1059500008600BE05E48086008E05E48086005E00B
:105960005D48086002E04FF0FF30704700BF002044
:10597000FBE701465448407A30B1012808D002289C
:105980000AD0032810D10BE04FF4804008800EE0CD
:1059900041F69C7008800AE04FF48050088006E0D1
:1059A0004FF40060088002E04FF0FF30704700BF06
:1059B0004548C07C10B10888401008800020F5E7F9
:1059C00001464148007C08700020704701463E486F
:1059D000807A10B10120087001E0002008700020DA
:1059E000704738B504463848807A10B94FF0FF3018
:1059F00038BD354A1268117C334A526810786B46BC
:105A00000222FDF757FF10B14FF0FF30F0E79DF88D
:105A100001009DF8001040EA012000B22080002023
:105A2000E6E72DE9FE4F0746884692461D46DDF81B
:105A300030B000260024244890F8240010B1601EE5
:105A4000BDE8FE8F002028701F48807A10B94FF003
:105A5000FF30F5E71C48007C10B94FF0FF30EFE74E
:105A60001948007C00F0400008B1B01CC6B21648CE
:105A7000007C00F0200008B1B01CC6B21248007CC7
:105A800000F0100008B1B01CC6B20F48007C00F056
:105A9000080008B1B01DC6B20B4A1268917A0A4AD2
:105AA000526810786B460222FDF704FF10B14FF0E8
:105AB000FF30C5E79DF801009DF8001040EA01297C
:105AC000B1450BDA0020BBE70801002000000343CA
:105AD000000083423333034233338341FC48406840
